{
  "_format": "hh-sol-artifact-1",
  "contractName": "Odz1155",
  "sourceName": "contracts/Odz1155.sol",
  "abi": [
    {
      "inputs": [],
      "stateMutability": "nonpayable",
      "type": "constructor"
    },
    {
      "inputs": [
        {
          "internalType": "address",
          "name": "sender",
          "type": "address"
        },
        {
          "internalType": "uint256",
          "name": "balance",
          "type": "uint256"
        },
        {
          "internalType": "uint256",
          "name": "needed",
          "type": "uint256"
        },
        {
          "internalType": "uint256",
          "name": "tokenId",
          "type": "uint256"
        }
      ],
      "name": "ERC1155InsufficientBalance",
      "type": "error"
    },
    {
      "inputs": [
        {
          "internalType": "address",
          "name": "approver",
          "type": "address"
        }
      ],
      "name": "ERC1155InvalidApprover",
      "type": "error"
    },
    {
      "inputs": [
        {
          "internalType": "uint256",
          "name": "idsLength",
          "type": "uint256"
        },
        {
          "internalType": "uint256",
          "name": "valuesLength",
          "type": "uint256"
        }
      ],
      "name": "ERC1155InvalidArrayLength",
      "type": "error"
    },
    {
      "inputs": [
        {
          "internalType": "address",
          "name": "operator",
          "type": "address"
        }
      ],
      "name": "ERC1155InvalidOperator",
      "type": "error"
    },
    {
      "inputs": [
        {
          "internalType": "address",
          "name": "receiver",
          "type": "address"
        }
      ],
      "name": "ERC1155InvalidReceiver",
      "type": "error"
    },
    {
      "inputs": [
        {
          "internalType": "address",
          "name": "sender",
          "type": "address"
        }
      ],
      "name": "ERC1155InvalidSender",
      "type": "error"
    },
    {
      "inputs": [
        {
          "internalType": "address",
          "name": "operator",
          "type": "address"
        },
        {
          "internalType": "address",
          "name": "owner",
          "type": "address"
        }
      ],
      "name": "ERC1155MissingApprovalForAll",
      "type": "error"
    },
    {
      "inputs": [
        {
          "internalType": "address",
          "name": "owner",
          "type": "address"
        }
      ],
      "name": "OwnableInvalidOwner",
      "type": "error"
    },
    {
      "inputs": [
        {
          "internalType": "address",
          "name": "account",
          "type": "address"
        }
      ],
      "name": "OwnableUnauthorizedAccount",
      "type": "error"
    },
    {
      "anonymous": false,
      "inputs": [
        {
          "indexed": true,
          "internalType": "address",
          "name": "account",
          "type": "address"
        },
        {
          "indexed": true,
          "internalType": "address",
          "name": "operator",
          "type": "address"
        },
        {
          "indexed": false,
          "internalType": "bool",
          "name": "approved",
          "type": "bool"
        }
      ],
      "name": "ApprovalForAll",
      "type": "event"
    },
    {
      "anonymous": false,
      "inputs": [
        {
          "indexed": false,
          "internalType": "address",
          "name": "attester",
          "type": "address"
        },
        {
          "indexed": false,
          "internalType": "uint256",
          "name": "eventId",
          "type": "uint256"
        },
        {
          "indexed": false,
          "internalType": "uint256",
          "name": "questionId",
          "type": "uint256"
        },
        {
          "indexed": false,
          "internalType": "uint256",
          "name": "choiceId",
          "type": "uint256"
        }
      ],
      "name": "AttestationReceived",
      "type": "event"
    },
    {
      "anonymous": false,
      "inputs": [
        {
          "indexed": true,
          "internalType": "address",
          "name": "previousOwner",
          "type": "address"
        },
        {
          "indexed": true,
          "internalType": "address",
          "name": "newOwner",
          "type": "address"
        }
      ],
      "name": "OwnershipTransferred",
      "type": "event"
    },
    {
      "anonymous": false,
      "inputs": [
        {
          "indexed": true,
          "internalType": "address",
          "name": "operator",
          "type": "address"
        },
        {
          "indexed": true,
          "internalType": "address",
          "name": "from",
          "type": "address"
        },
        {
          "indexed": true,
          "internalType": "address",
          "name": "to",
          "type": "address"
        },
        {
          "indexed": false,
          "internalType": "uint256[]",
          "name": "ids",
          "type": "uint256[]"
        },
        {
          "indexed": false,
          "internalType": "uint256[]",
          "name": "values",
          "type": "uint256[]"
        }
      ],
      "name": "TransferBatch",
      "type": "event"
    },
    {
      "anonymous": false,
      "inputs": [
        {
          "indexed": true,
          "internalType": "address",
          "name": "operator",
          "type": "address"
        },
        {
          "indexed": true,
          "internalType": "address",
          "name": "from",
          "type": "address"
        },
        {
          "indexed": true,
          "internalType": "address",
          "name": "to",
          "type": "address"
        },
        {
          "indexed": false,
          "internalType": "uint256",
          "name": "id",
          "type": "uint256"
        },
        {
          "indexed": false,
          "internalType": "uint256",
          "name": "value",
          "type": "uint256"
        }
      ],
      "name": "TransferSingle",
      "type": "event"
    },
    {
      "anonymous": false,
      "inputs": [
        {
          "indexed": false,
          "internalType": "string",
          "name": "value",
          "type": "string"
        },
        {
          "indexed": true,
          "internalType": "uint256",
          "name": "id",
          "type": "uint256"
        }
      ],
      "name": "URI",
      "type": "event"
    },
    {
      "inputs": [],
      "name": "BET_AMOUNT",
      "outputs": [
        {
          "internalType": "uint256",
          "name": "",
          "type": "uint256"
        }
      ],
      "stateMutability": "view",
      "type": "function"
    },
    {
      "inputs": [],
      "name": "CREATOR_FEE",
      "outputs": [
        {
          "internalType": "uint256",
          "name": "",
          "type": "uint256"
        }
      ],
      "stateMutability": "view",
      "type": "function"
    },
    {
      "inputs": [],
      "name": "JOIN_REWARD",
      "outputs": [
        {
          "internalType": "uint256",
          "name": "",
          "type": "uint256"
        }
      ],
      "stateMutability": "view",
      "type": "function"
    },
    {
      "inputs": [],
      "name": "ODDS_PRECISION",
      "outputs": [
        {
          "internalType": "uint256",
          "name": "",
          "type": "uint256"
        }
      ],
      "stateMutability": "view",
      "type": "function"
    },
    {
      "inputs": [],
      "name": "PROPOSE_COST",
      "outputs": [
        {
          "internalType": "uint256",
          "name": "",
          "type": "uint256"
        }
      ],
      "stateMutability": "view",
      "type": "function"
    },
    {
      "inputs": [],
      "name": "QUORUM_PERCENTAGE",
      "outputs": [
        {
          "internalType": "uint256",
          "name": "",
          "type": "uint256"
        }
      ],
      "stateMutability": "view",
      "type": "function"
    },
    {
      "inputs": [],
      "name": "STAKE_AMOUNT",
      "outputs": [
        {
          "internalType": "uint256",
          "name": "",
          "type": "uint256"
        }
      ],
      "stateMutability": "view",
      "type": "function"
    },
    {
      "inputs": [],
      "name": "_eventIds",
      "outputs": [
        {
          "internalType": "uint256",
          "name": "",
          "type": "uint256"
        }
      ],
      "stateMutability": "view",
      "type": "function"
    },
    {
      "inputs": [],
      "name": "_odzCoin",
      "outputs": [
        {
          "internalType": "contract IOdz20",
          "name": "",
          "type": "address"
        }
      ],
      "stateMutability": "view",
      "type": "function"
    },
    {
      "inputs": [
        {
          "internalType": "address",
          "name": "account",
          "type": "address"
        },
        {
          "internalType": "uint256",
          "name": "id",
          "type": "uint256"
        }
      ],
      "name": "balanceOf",
      "outputs": [
        {
          "internalType": "uint256",
          "name": "",
          "type": "uint256"
        }
      ],
      "stateMutability": "view",
      "type": "function"
    },
    {
      "inputs": [
        {
          "internalType": "address[]",
          "name": "accounts",
          "type": "address[]"
        },
        {
          "internalType": "uint256[]",
          "name": "ids",
          "type": "uint256[]"
        }
      ],
      "name": "balanceOfBatch",
      "outputs": [
        {
          "internalType": "uint256[]",
          "name": "",
          "type": "uint256[]"
        }
      ],
      "stateMutability": "view",
      "type": "function"
    },
    {
      "inputs": [
        {
          "internalType": "address",
          "name": "account",
          "type": "address"
        },
        {
          "internalType": "uint256",
          "name": "id",
          "type": "uint256"
        },
        {
          "internalType": "uint256",
          "name": "value",
          "type": "uint256"
        }
      ],
      "name": "burn",
      "outputs": [],
      "stateMutability": "nonpayable",
      "type": "function"
    },
    {
      "inputs": [
        {
          "internalType": "address",
          "name": "account",
          "type": "address"
        },
        {
          "internalType": "uint256[]",
          "name": "ids",
          "type": "uint256[]"
        },
        {
          "internalType": "uint256[]",
          "name": "values",
          "type": "uint256[]"
        }
      ],
      "name": "burnBatch",
      "outputs": [],
      "stateMutability": "nonpayable",
      "type": "function"
    },
    {
      "inputs": [],
      "name": "claimAllOdz",
      "outputs": [],
      "stateMutability": "nonpayable",
      "type": "function"
    },
    {
      "inputs": [
        {
          "internalType": "uint256",
          "name": "_eventId",
          "type": "uint256"
        }
      ],
      "name": "concludeEvent",
      "outputs": [],
      "stateMutability": "nonpayable",
      "type": "function"
    },
    {
      "inputs": [
        {
          "internalType": "uint256",
          "name": "_startTime",
          "type": "uint256"
        },
        {
          "internalType": "uint256",
          "name": "_endTime",
          "type": "uint256"
        }
      ],
      "name": "createEvent",
      "outputs": [],
      "stateMutability": "nonpayable",
      "type": "function"
    },
    {
      "inputs": [
        {
          "internalType": "address",
          "name": "attester",
          "type": "address"
        },
        {
          "internalType": "uint64",
          "name": "schemaId",
          "type": "uint64"
        },
        {
          "internalType": "uint64",
          "name": "attestationId",
          "type": "uint64"
        },
        {
          "internalType": "bytes",
          "name": "extraData",
          "type": "bytes"
        }
      ],
      "name": "didReceiveAttestation",
      "outputs": [],
      "stateMutability": "payable",
      "type": "function"
    },
    {
      "inputs": [
        {
          "internalType": "address",
          "name": "attester",
          "type": "address"
        },
        {
          "internalType": "uint64",
          "name": "schemaId",
          "type": "uint64"
        },
        {
          "internalType": "uint64",
          "name": "attestationId",
          "type": "uint64"
        },
        {
          "internalType": "contract IERC20",
          "name": "resolverFeeERC20Token",
          "type": "address"
        },
        {
          "internalType": "uint256",
          "name": "resolverFeeERC20Amount",
          "type": "uint256"
        },
        {
          "internalType": "bytes",
          "name": "extraData",
          "type": "bytes"
        }
      ],
      "name": "didReceiveAttestation",
      "outputs": [],
      "stateMutability": "nonpayable",
      "type": "function"
    },
    {
      "inputs": [
        {
          "internalType": "address",
          "name": "attester",
          "type": "address"
        },
        {
          "internalType": "uint64",
          "name": "schemaId",
          "type": "uint64"
        },
        {
          "internalType": "uint64",
          "name": "attestationId",
          "type": "uint64"
        },
        {
          "internalType": "bytes",
          "name": "extraData",
          "type": "bytes"
        }
      ],
      "name": "didReceiveRevocation",
      "outputs": [],
      "stateMutability": "payable",
      "type": "function"
    },
    {
      "inputs": [
        {
          "internalType": "address",
          "name": "attester",
          "type": "address"
        },
        {
          "internalType": "uint64",
          "name": "schemaId",
          "type": "uint64"
        },
        {
          "internalType": "uint64",
          "name": "attestationId",
          "type": "uint64"
        },
        {
          "internalType": "contract IERC20",
          "name": "resolverFeeERC20Token",
          "type": "address"
        },
        {
          "internalType": "uint256",
          "name": "resolverFeeERC20Amount",
          "type": "uint256"
        },
        {
          "internalType": "bytes",
          "name": "extraData",
          "type": "bytes"
        }
      ],
      "name": "didReceiveRevocation",
      "outputs": [],
      "stateMutability": "nonpayable",
      "type": "function"
    },
    {
      "inputs": [],
      "name": "eventSchemaId",
      "outputs": [
        {
          "internalType": "uint256",
          "name": "",
          "type": "uint256"
        }
      ],
      "stateMutability": "view",
      "type": "function"
    },
    {
      "inputs": [
        {
          "internalType": "uint256",
          "name": "",
          "type": "uint256"
        }
      ],
      "name": "events",
      "outputs": [
        {
          "internalType": "uint256",
          "name": "startTime",
          "type": "uint256"
        },
        {
          "internalType": "uint256",
          "name": "endTime",
          "type": "uint256"
        },
        {
          "internalType": "uint256",
          "name": "participantCount",
          "type": "uint256"
        },
        {
          "internalType": "uint256",
          "name": "questionCount",
          "type": "uint256"
        },
        {
          "internalType": "address",
          "name": "organizer",
          "type": "address"
        },
        {
          "internalType": "bool",
          "name": "concluded",
          "type": "bool"
        }
      ],
      "stateMutability": "view",
      "type": "function"
    },
    {
      "inputs": [
        {
          "internalType": "uint256",
          "name": "_eventId",
          "type": "uint256"
        }
      ],
      "name": "getEventDetails",
      "outputs": [
        {
          "components": [
            {
              "internalType": "uint256",
              "name": "eventId",
              "type": "uint256"
            },
            {
              "internalType": "uint256",
              "name": "startTime",
              "type": "uint256"
            },
            {
              "internalType": "uint256",
              "name": "endTime",
              "type": "uint256"
            },
            {
              "internalType": "address",
              "name": "organizer",
              "type": "address"
            },
            {
              "components": [
                {
                  "internalType": "uint256",
                  "name": "questionId",
                  "type": "uint256"
                },
                {
                  "internalType": "uint256",
                  "name": "choiceCount",
                  "type": "uint256"
                },
                {
                  "internalType": "uint256",
                  "name": "totalBets",
                  "type": "uint256"
                },
                {
                  "internalType": "uint256",
                  "name": "attestationCount",
                  "type": "uint256"
                },
                {
                  "internalType": "uint256",
                  "name": "result",
                  "type": "uint256"
                },
                {
                  "internalType": "bool",
                  "name": "hasQuorum",
                  "type": "bool"
                },
                {
                  "components": [
                    {
                      "internalType": "uint256",
                      "name": "choiceId",
                      "type": "uint256"
                    },
                    {
                      "internalType": "uint256",
                      "name": "totalBets",
                      "type": "uint256"
                    }
                  ],
                  "internalType": "struct Odz1155.ChoiceInfo[]",
                  "name": "choices",
                  "type": "tuple[]"
                }
              ],
              "internalType": "struct Odz1155.QuestionInfo[]",
              "name": "questions",
              "type": "tuple[]"
            }
          ],
          "internalType": "struct Odz1155.ActiveEventInfo",
          "name": "",
          "type": "tuple"
        }
      ],
      "stateMutability": "view",
      "type": "function"
    },
    {
      "inputs": [],
      "name": "getEvents",
      "outputs": [
        {
          "components": [
            {
              "internalType": "uint256",
              "name": "eventId",
              "type": "uint256"
            },
            {
              "internalType": "uint256",
              "name": "startTime",
              "type": "uint256"
            },
            {
              "internalType": "uint256",
              "name": "endTime",
              "type": "uint256"
            },
            {
              "internalType": "address",
              "name": "organizer",
              "type": "address"
            },
            {
              "components": [
                {
                  "internalType": "uint256",
                  "name": "questionId",
                  "type": "uint256"
                },
                {
                  "internalType": "uint256",
                  "name": "choiceCount",
                  "type": "uint256"
                },
                {
                  "internalType": "uint256",
                  "name": "totalBets",
                  "type": "uint256"
                },
                {
                  "internalType": "uint256",
                  "name": "attestationCount",
                  "type": "uint256"
                },
                {
                  "internalType": "uint256",
                  "name": "result",
                  "type": "uint256"
                },
                {
                  "internalType": "bool",
                  "name": "hasQuorum",
                  "type": "bool"
                },
                {
                  "components": [
                    {
                      "internalType": "uint256",
                      "name": "choiceId",
                      "type": "uint256"
                    },
                    {
                      "internalType": "uint256",
                      "name": "totalBets",
                      "type": "uint256"
                    }
                  ],
                  "internalType": "struct Odz1155.ChoiceInfo[]",
                  "name": "choices",
                  "type": "tuple[]"
                }
              ],
              "internalType": "struct Odz1155.QuestionInfo[]",
              "name": "questions",
              "type": "tuple[]"
            }
          ],
          "internalType": "struct Odz1155.ActiveEventInfo[]",
          "name": "",
          "type": "tuple[]"
        }
      ],
      "stateMutability": "view",
      "type": "function"
    },
    {
      "inputs": [
        {
          "internalType": "uint256",
          "name": "_eventId",
          "type": "uint256"
        },
        {
          "internalType": "uint256",
          "name": "_questionId",
          "type": "uint256"
        },
        {
          "internalType": "uint256",
          "name": "_choiceId",
          "type": "uint256"
        }
      ],
      "name": "getOdds",
      "outputs": [
        {
          "internalType": "uint256",
          "name": "",
          "type": "uint256"
        }
      ],
      "stateMutability": "view",
      "type": "function"
    },
    {
      "inputs": [
        {
          "internalType": "uint256",
          "name": "_eventId",
          "type": "uint256"
        },
        {
          "internalType": "uint256",
          "name": "_questionId",
          "type": "uint256"
        },
        {
          "internalType": "uint256",
          "name": "_choiceId",
          "type": "uint256"
        }
      ],
      "name": "getPotentialPayout",
      "outputs": [
        {
          "internalType": "uint256",
          "name": "",
          "type": "uint256"
        }
      ],
      "stateMutability": "view",
      "type": "function"
    },
    {
      "inputs": [
        {
          "internalType": "address",
          "name": "account",
          "type": "address"
        },
        {
          "internalType": "address",
          "name": "operator",
          "type": "address"
        }
      ],
      "name": "isApprovedForAll",
      "outputs": [
        {
          "internalType": "bool",
          "name": "",
          "type": "bool"
        }
      ],
      "stateMutability": "view",
      "type": "function"
    },
    {
      "inputs": [
        {
          "internalType": "uint256",
          "name": "_eventId",
          "type": "uint256"
        }
      ],
      "name": "joinEvent",
      "outputs": [],
      "stateMutability": "nonpayable",
      "type": "function"
    },
    {
      "inputs": [],
      "name": "owner",
      "outputs": [
        {
          "internalType": "address",
          "name": "",
          "type": "address"
        }
      ],
      "stateMutability": "view",
      "type": "function"
    },
    {
      "inputs": [
        {
          "internalType": "uint256",
          "name": "_eventId",
          "type": "uint256"
        },
        {
          "internalType": "uint256",
          "name": "_questionId",
          "type": "uint256"
        },
        {
          "internalType": "uint256",
          "name": "_choiceId",
          "type": "uint256"
        }
      ],
      "name": "placeBet",
      "outputs": [],
      "stateMutability": "nonpayable",
      "type": "function"
    },
    {
      "inputs": [
        {
          "internalType": "uint256",
          "name": "_eventId",
          "type": "uint256"
        },
        {
          "internalType": "uint256",
          "name": "_choiceCount",
          "type": "uint256"
        }
      ],
      "name": "proposeQuestion",
      "outputs": [],
      "stateMutability": "nonpayable",
      "type": "function"
    },
    {
      "inputs": [],
      "name": "renounceOwnership",
      "outputs": [],
      "stateMutability": "nonpayable",
      "type": "function"
    },
    {
      "inputs": [
        {
          "internalType": "address",
          "name": "from",
          "type": "address"
        },
        {
          "internalType": "address",
          "name": "to",
          "type": "address"
        },
        {
          "internalType": "uint256[]",
          "name": "ids",
          "type": "uint256[]"
        },
        {
          "internalType": "uint256[]",
          "name": "amounts",
          "type": "uint256[]"
        },
        {
          "internalType": "bytes",
          "name": "data",
          "type": "bytes"
        }
      ],
      "name": "safeBatchTransferFrom",
      "outputs": [],
      "stateMutability": "nonpayable",
      "type": "function"
    },
    {
      "inputs": [
        {
          "internalType": "address",
          "name": "from",
          "type": "address"
        },
        {
          "internalType": "address",
          "name": "to",
          "type": "address"
        },
        {
          "internalType": "uint256",
          "name": "id",
          "type": "uint256"
        },
        {
          "internalType": "uint256",
          "name": "amount",
          "type": "uint256"
        },
        {
          "internalType": "bytes",
          "name": "data",
          "type": "bytes"
        }
      ],
      "name": "safeTransferFrom",
      "outputs": [],
      "stateMutability": "nonpayable",
      "type": "function"
    },
    {
      "inputs": [
        {
          "internalType": "address",
          "name": "operator",
          "type": "address"
        },
        {
          "internalType": "bool",
          "name": "approved",
          "type": "bool"
        }
      ],
      "name": "setApprovalForAll",
      "outputs": [],
      "stateMutability": "nonpayable",
      "type": "function"
    },
    {
      "inputs": [
        {
          "internalType": "uint64",
          "name": "_schemaId",
          "type": "uint64"
        }
      ],
      "name": "setEventSchemaId",
      "outputs": [],
      "stateMutability": "nonpayable",
      "type": "function"
    },
    {
      "inputs": [
        {
          "internalType": "contract IOdz20",
          "name": "odzCoin",
          "type": "address"
        }
      ],
      "name": "setOdzCoin",
      "outputs": [],
      "stateMutability": "nonpayable",
      "type": "function"
    },
    {
      "inputs": [
        {
          "internalType": "bytes4",
          "name": "interfaceId",
          "type": "bytes4"
        }
      ],
      "name": "supportsInterface",
      "outputs": [
        {
          "internalType": "bool",
          "name": "",
          "type": "bool"
        }
      ],
      "stateMutability": "view",
      "type": "function"
    },
    {
      "inputs": [
        {
          "internalType": "address",
          "name": "newOwner",
          "type": "address"
        }
      ],
      "name": "transferOwnership",
      "outputs": [],
      "stateMutability": "nonpayable",
      "type": "function"
    },
    {
      "inputs": [
        {
          "internalType": "address",
          "name": "",
          "type": "address"
        }
      ],
      "name": "unclaimedOdz",
      "outputs": [
        {
          "internalType": "uint256",
          "name": "",
          "type": "uint256"
        }
      ],
      "stateMutability": "view",
      "type": "function"
    },
    {
      "inputs": [
        {
          "internalType": "uint256",
          "name": "",
          "type": "uint256"
        }
      ],
      "name": "uri",
      "outputs": [
        {
          "internalType": "string",
          "name": "",
          "type": "string"
        }
      ],
      "stateMutability": "view",
      "type": "function"
    },
    {
      "inputs": [
        {
          "internalType": "address",
          "name": "",
          "type": "address"
        },
        {
          "internalType": "uint256",
          "name": "",
          "type": "uint256"
        }
      ],
      "name": "userStakes",
      "outputs": [
        {
          "internalType": "uint256",
          "name": "",
          "type": "uint256"
        }
      ],
      "stateMutability": "view",
      "type": "function"
    }
  ],
  "bytecode": "0x60806040523480156200001157600080fd5b503360405180606001604052806027815260200162006218602791396200003e81620000cc60201b60201c565b50600073ffffffffffffffffffffffffffffffffffffffff168173ffffffffffffffffffffffffffffffffffffffff1603620000b45760006040517f1e4fbdf7000000000000000000000000000000000000000000000000000000008152600401620000ab9190620001ec565b60405180910390fd5b620000c581620000e160201b60201c565b506200056a565b8060029081620000dd919062000483565b5050565b6000600360009054906101000a900473ffffffffffffffffffffffffffffffffffffffff16905081600360006101000a81548173ffffffffffffffffffffffffffffffffffffffff021916908373ffffffffffffffffffffffffffffffffffffffff1602179055508173ffffffffffffffffffffffffffffffffffffffff168173ffffffffffffffffffffffffffffffffffffffff167f8be0079c531659141344cd1fd0a4f28419497f9722a3daafe3b4186f6b6457e060405160405180910390a35050565b600073ffffffffffffffffffffffffffffffffffffffff82169050919050565b6000620001d482620001a7565b9050919050565b620001e681620001c7565b82525050565b6000602082019050620002036000830184620001db565b92915050565b600081519050919050565b7f4e487b7100000000000000000000000000000000000000000000000000000000600052604160045260246000fd5b7f4e487b7100000000000000000000000000000000000000000000000000000000600052602260045260246000fd5b600060028204905060018216806200028b57607f821691505b602082108103620002a157620002a062000243565b5b50919050565b60008190508160005260206000209050919050565b60006020601f8301049050919050565b600082821b905092915050565b6000600883026200030b7fffffffffffffffffffffffffffffffffffffffffffffffffffffffffffffffff82620002cc565b620003178683620002cc565b95508019841693508086168417925050509392505050565b6000819050919050565b6000819050919050565b6000620003646200035e62000358846200032f565b62000339565b6200032f565b9050919050565b6000819050919050565b620003808362000343565b620003986200038f826200036b565b848454620002d9565b825550505050565b600090565b620003af620003a0565b620003bc81848462000375565b505050565b5b81811015620003e457620003d8600082620003a5565b600181019050620003c2565b5050565b601f8211156200043357620003fd81620002a7565b6200040884620002bc565b8101602085101562000418578190505b620004306200042785620002bc565b830182620003c1565b50505b505050565b600082821c905092915050565b6000620004586000198460080262000438565b1980831691505092915050565b600062000473838362000445565b9150826002028217905092915050565b6200048e8262000209565b67ffffffffffffffff811115620004aa57620004a962000214565b5b620004b6825462000272565b620004c3828285620003e8565b600060209050601f831160018114620004fb5760008415620004e6578287015190505b620004f2858262000465565b86555062000562565b601f1984166200050b86620002a7565b60005b8281101562000535578489015182556001820191506020850194506020810190506200050e565b8683101562000555578489015162000551601f89168262000445565b8355505b6001600288020188555050505b505050505050565b615c9e806200057a6000396000f3fe6080604052600436106102505760003560e01c8063790c012511610139578063d48cb2e6116100b6578063ec38d5a01161007a578063ec38d5a0146108bc578063ee8a7c15146108f9578063f242432a14610924578063f2fde38b1461094d578063f5298aca14610976578063faf5625f1461099f57610250565b8063d48cb2e6146107e8578063e33361f414610811578063e71c96971461082d578063e830b5c714610856578063e985e9c51461087f57610250565b8063a22cb465116100fd578063a22cb465146106dd578063a24fe58f14610706578063a2e8eb2c14610731578063b5d5b5fa1461076e578063cbae406c146107ab57610250565b8063790c01251461060c57806387fba35e146106355780638ca4b5cd1461065e5780638da5cb5b146106875780638e613ed3146106b257610250565b80633398b4ed116101d25780634e1273f4116101965780634e1273f4146105245780634fa43d8b146105615780636b20c4541461058a5780636bc98ba3146105b3578063715018a6146105de57806377a08e40146105f557610250565b80633398b4ed1461046057806338d361e21461047c5780633f9326af146104a5578063404aa8f9146104d05780634466507a146104fb57610250565b80630eca8192116102195780630eca81921461038b578063117d0bb2146103b657806316cb7b5d146103e15780631a7dfa9f1461040c5780632eb2c2d61461043757610250565b8062fdd58e1461025557806301ffc9a714610292578063033945c3146102cf5780630b7914301461030c5780630e89341c1461034e575b600080fd5b34801561026157600080fd5b5061027c60048036038101906102779190613d09565b6109ca565b6040516102899190613d58565b60405180910390f35b34801561029e57600080fd5b506102b960048036038101906102b49190613dcb565b610a24565b6040516102c69190613e13565b60405180910390f35b3480156102db57600080fd5b506102f660048036038101906102f19190613e2e565b610b06565b6040516103039190613d58565b60405180910390f35b34801561031857600080fd5b50610333600480360381019061032e9190613e81565b610c12565b60405161034596959493929190613ebd565b60405180910390f35b34801561035a57600080fd5b5061037560048036038101906103709190613e81565b610c7b565b6040516103829190613fae565b60405180910390f35b34801561039757600080fd5b506103a0610d0f565b6040516103ad9190613d58565b60405180910390f35b3480156103c257600080fd5b506103cb610d14565b6040516103d8919061402f565b60405180910390f35b3480156103ed57600080fd5b506103f6610d3a565b6040516104039190613d58565b60405180910390f35b34801561041857600080fd5b50610421610d40565b60405161042e9190613d58565b60405180910390f35b34801561044357600080fd5b5061045e60048036038101906104599190614247565b610d45565b005b61047a600480360381019061047591906143b1565b610e30565b005b34801561048857600080fd5b506104a3600480360381019061049e9190613e81565b611188565b005b3480156104b157600080fd5b506104ba61146d565b6040516104c79190613d58565b60405180910390f35b3480156104dc57600080fd5b506104e5611472565b6040516104f291906147da565b60405180910390f35b34801561050757600080fd5b50610522600480360381019061051d919061483a565b611536565b005b34801561053057600080fd5b5061054b600480360381019061054691906149ac565b611571565b6040516105589190614ad3565b60405180910390f35b34801561056d57600080fd5b5061058860048036038101906105839190613e81565b611680565b005b34801561059657600080fd5b506105b160048036038101906105ac9190614af5565b611ad9565b005b3480156105bf57600080fd5b506105c8611b85565b6040516105d59190613d58565b60405180910390f35b3480156105ea57600080fd5b506105f3611b91565b005b34801561060157600080fd5b5061060a611ba5565b005b34801561061857600080fd5b50610633600480360381019061062e9190614b80565b611d03565b005b34801561064157600080fd5b5061065c60048036038101906106579190614b80565b611ecd565b005b34801561066a57600080fd5b5061068560048036038101906106809190614bc0565b61205b565b005b34801561069357600080fd5b5061069c612077565b6040516106a99190614bed565b60405180910390f35b3480156106be57600080fd5b506106c76120a1565b6040516106d49190613d58565b60405180910390f35b3480156106e957600080fd5b5061070460048036038101906106ff9190614c34565b6120a7565b005b34801561071257600080fd5b5061071b612123565b6040516107289190613d58565b60405180910390f35b34801561073d57600080fd5b5061075860048036038101906107539190614c74565b612128565b6040516107659190613d58565b60405180910390f35b34801561077a57600080fd5b5061079560048036038101906107909190613d09565b612140565b6040516107a29190613d58565b60405180910390f35b3480156107b757600080fd5b506107d260048036038101906107cd9190613e2e565b612165565b6040516107df9190613d58565b60405180910390f35b3480156107f457600080fd5b5061080f600480360381019061080a9190614cdf565b61219f565b005b61082b600480360381019061082691906143b1565b6122eb565b005b34801561083957600080fd5b50610854600480360381019061084f9190613e2e565b612326565b005b34801561086257600080fd5b5061087d6004803603810190610878919061483a565b61262c565b005b34801561088b57600080fd5b506108a660048036038101906108a19190614d0c565b612667565b6040516108b39190613e13565b60405180910390f35b3480156108c857600080fd5b506108e360048036038101906108de9190613e81565b6126fb565b6040516108f09190614dc2565b60405180910390f35b34801561090557600080fd5b5061090e612964565b60405161091b9190613d58565b60405180910390f35b34801561093057600080fd5b5061094b60048036038101906109469190614de4565b612969565b005b34801561095957600080fd5b50610974600480360381019061096f9190614c74565b612a00565b005b34801561098257600080fd5b5061099d60048036038101906109989190614e7b565b612a86565b005b3480156109ab57600080fd5b506109b4612b32565b6040516109c19190613d58565b60405180910390f35b600080600083815260200190815260200160002060008473ffffffffffffffffffffffffffffffffffffffff1673ffffffffffffffffffffffffffffffffffffffff16815260200190815260200160002054905092915050565b60007fd9b67a26000000000000000000000000000000000000000000000000000000007bffffffffffffffffffffffffffffffffffffffffffffffffffffffff1916827bffffffffffffffffffffffffffffffffffffffffffffffffffffffff19161480610aef57507f0e89341c000000000000000000000000000000000000000000000000000000007bffffffffffffffffffffffffffffffffffffffffffffffffffffffff1916827bffffffffffffffffffffffffffffffffffffffffffffffffffffffff1916145b80610aff5750610afe82612b37565b5b9050919050565b6000806006600086815260200190815260200160002090506000816005016000868152602001908152602001600020905080600101548410610b7d576040517f08c379a0000000000000000000000000000000000000000000000000000000008152600401610b7490614f1a565b60405180910390fd5b600081600201541480610ba85750600081600001600086815260200190815260200160002060000154145b15610bcb57670de0b6b3a7640000600a610bc29190614f69565b92505050610c0b565b80600001600085815260200190815260200160002060000154670de0b6b3a76400008260020154610bfc9190614f69565b610c069190614fda565b925050505b9392505050565b60066020528060005260406000206000915090508060000154908060010154908060020154908060030154908060040160009054906101000a900473ffffffffffffffffffffffffffffffffffffffff16908060040160149054906101000a900460ff16905086565b606060028054610c8a9061503a565b80601f0160208091040260200160405190810160405280929190818152602001828054610cb69061503a565b8015610d035780601f10610cd857610100808354040283529160200191610d03565b820191906000526020600020905b815481529060010190602001808311610ce657829003601f168201915b50505050509050919050565b606481565b600560009054906101000a900473ffffffffffffffffffffffffffffffffffffffff1681565b60045481565b600a81565b60005b8351811015610e1b5760066000858381518110610d6857610d6761506b565b5b6020026020010151815260200190815260200160002060040160149054906101000a900460ff1680610dc9575060066000858381518110610dac57610dab61506b565b5b602002602001015181526020019081526020016000206001015442115b610e08576040517f08c379a0000000000000000000000000000000000000000000000000000000008152600401610dff9061510c565b60405180910390fd5b8080610e139061512c565b915050610d48565b50610e298585858585612ba1565b5050505050565b60008060008484810190610e449190613e2e565b9250925092508667ffffffffffffffff1660085414610e98576040517f08c379a0000000000000000000000000000000000000000000000000000000008152600401610e8f906151c0565b60405180910390fd5b6000600660008581526020019081526020016000209050600081600501600085815260200190815260200160002090508160060160008b73ffffffffffffffffffffffffffffffffffffffff1673ffffffffffffffffffffffffffffffffffffffff16815260200190815260200160002060009054906101000a900460ff16610f56576040517f08c379a0000000000000000000000000000000000000000000000000000000008152600401610f4d9061522c565b60405180910390fd5b8060040160008b73ffffffffffffffffffffffffffffffffffffffff1673ffffffffffffffffffffffffffffffffffffffff16815260200190815260200160002060009054906101000a900460ff1615610fe5576040517f08c379a0000000000000000000000000000000000000000000000000000000008152600401610fdc90615298565b60405180910390fd5b8060080160009054906101000a900460ff1615611037576040517f08c379a000000000000000000000000000000000000000000000000000000000815260040161102e90615304565b60405180910390fd5b60018160040160008c73ffffffffffffffffffffffffffffffffffffffff1673ffffffffffffffffffffffffffffffffffffffff16815260200190815260200160002060006101000a81548160ff021916908315150217905550828160050160008c73ffffffffffffffffffffffffffffffffffffffff1673ffffffffffffffffffffffffffffffffffffffff168152602001908152602001600020819055508060060160008154809291906110ec9061512c565b919050555060338260020154606483600601546111099190614f69565b6111139190614fda565b1061113f5760018160080160006101000a81548160ff0219169083151502179055508281600701819055505b7f762666abe3dc01520e7b221de01d77c1ba0593e850abf509ea39a754c14555568a8686866040516111749493929190615324565b60405180910390a150505050505050505050565b6000600660008381526020019081526020016000209050806000015442101580156111b7575080600101544211155b6111f6576040517f08c379a00000000000000000000000000000000000000000000000000000000081526004016111ed906153b5565b60405180910390fd5b8060060160003373ffffffffffffffffffffffffffffffffffffffff1673ffffffffffffffffffffffffffffffffffffffff16815260200190815260200160002060009054906101000a900460ff1615611285576040517f08c379a000000000000000000000000000000000000000000000000000000000815260040161127c90615421565b60405180910390fd5b60018160060160003373ffffffffffffffffffffffffffffffffffffffff1673ffffffffffffffffffffffffffffffffffffffff16815260200190815260200160002060006101000a81548160ff02191690831515021790555080600701339080600181540180825580915050600190039060005260206000200160009091909190916101000a81548173ffffffffffffffffffffffffffffffffffffffff021916908373ffffffffffffffffffffffffffffffffffffffff1602179055508060020160008154809291906113599061512c565b919050555061137a3383606460405180602001604052806000815250612c49565b6113ba8160040160009054906101000a900473ffffffffffffffffffffffffffffffffffffffff1683600a60405180602001604052806000815250612c49565b600a6113c633846109ca565b1015611407576040517f08c379a00000000000000000000000000000000000000000000000000000000081526004016113fe9061548d565b60405180910390fd5b6114133383600a612ce2565b600a600760003373ffffffffffffffffffffffffffffffffffffffff1673ffffffffffffffffffffffffffffffffffffffff1681526020019081526020016000206000848152602001908152602001600020819055505050565b600581565b60606000600454905060008167ffffffffffffffff8111156114975761149661404f565b5b6040519080825280602002602001820160405280156114d057816020015b6114bd613bc3565b8152602001906001900390816114b55790505b509050600080600190505b600454811161152c576114ed816126fb565b838381518110611500576114ff61506b565b5b602002602001018190525081806115169061512c565b92505080806115249061512c565b9150506114db565b5081935050505090565b6040517f08c379a0000000000000000000000000000000000000000000000000000000008152600401611568906154f9565b60405180910390fd5b606081518351146115bd57815183516040517f5b0599910000000000000000000000000000000000000000000000000000000081526004016115b4929190615519565b60405180910390fd5b6000835167ffffffffffffffff8111156115da576115d961404f565b5b6040519080825280602002602001820160405280156116085781602001602082028036833780820191505090505b50905060005b84518110156116755761164561162d8287612d8990919063ffffffff16565b6116408387612d9d90919063ffffffff16565b6109ca565b8282815181106116585761165761506b565b5b6020026020010181815250508061166e9061512c565b905061160e565b508091505092915050565b60006006600083815260200190815260200160002090508060040160009054906101000a900473ffffffffffffffffffffffffffffffffffffffff1673ffffffffffffffffffffffffffffffffffffffff163373ffffffffffffffffffffffffffffffffffffffff1614611729576040517f08c379a00000000000000000000000000000000000000000000000000000000081526004016117209061558e565b60405180910390fd5b8060010154421161176f576040517f08c379a0000000000000000000000000000000000000000000000000000000008152600401611766906155fa565b60405180910390fd5b8060040160149054906101000a900460ff16156117c1576040517f08c379a00000000000000000000000000000000000000000000000000000000081526004016117b890615666565b60405180910390fd5b60018160040160146101000a81548160ff02191690831515021790555060005b8160030154811015611ad457600082600501600083815260200190815260200160002090508060080160009054906101000a900460ff1615611ac05760008160070154905060005b8460020154811015611abd57600085600701828154811061184d5761184c61506b565b5b9060005260206000200160009054906101000a900473ffffffffffffffffffffffffffffffffffffffff169050828460050160008373ffffffffffffffffffffffffffffffffffffffff1673ffffffffffffffffffffffffffffffffffffffff1681526020019081526020016000205403611a5257600084600001600085815260200190815260200160002060010160008373ffffffffffffffffffffffffffffffffffffffff1673ffffffffffffffffffffffffffffffffffffffff1681526020019081526020016000205490506000611929898887610b06565b90506000670de0b6b3a764000082846119429190614f69565b61194c9190614fda565b905080600960008673ffffffffffffffffffffffffffffffffffffffff1673ffffffffffffffffffffffffffffffffffffffff168152602001908152602001600020600082825461199d9190615686565b92505081905550600760008573ffffffffffffffffffffffffffffffffffffffff1673ffffffffffffffffffffffffffffffffffffffff16815260200190815260200160002060008b815260200190815260200160002054600960008673ffffffffffffffffffffffffffffffffffffffff1673ffffffffffffffffffffffffffffffffffffffff1681526020019081526020016000206000828254611a439190615686565b92505081905550505050611aa9565b6000600760008373ffffffffffffffffffffffffffffffffffffffff1673ffffffffffffffffffffffffffffffffffffffff1681526020019081526020016000206000898152602001908152602001600020819055505b508080611ab59061512c565b915050611829565b50505b508080611acc9061512c565b9150506117e1565b505050565b611ae1612db1565b73ffffffffffffffffffffffffffffffffffffffff168373ffffffffffffffffffffffffffffffffffffffff1614158015611b2a5750611b2883611b23612db1565b612667565b155b15611b7557611b37612db1565b836040517fe237d922000000000000000000000000000000000000000000000000000000008152600401611b6c9291906156ba565b60405180910390fd5b611b80838383612db9565b505050565b670de0b6b3a764000081565b611b99612e4d565b611ba36000612ed4565b565b6000600960003373ffffffffffffffffffffffffffffffffffffffff1673ffffffffffffffffffffffffffffffffffffffff16815260200190815260200160002054905060008111611c2c576040517f08c379a0000000000000000000000000000000000000000000000000000000008152600401611c239061572f565b60405180910390fd5b6000600960003373ffffffffffffffffffffffffffffffffffffffff1673ffffffffffffffffffffffffffffffffffffffff16815260200190815260200160002081905550600560009054906101000a900473ffffffffffffffffffffffffffffffffffffffff1673ffffffffffffffffffffffffffffffffffffffff166340c10f1933836040518363ffffffff1660e01b8152600401611cce92919061574f565b600060405180830381600087803b158015611ce857600080fd5b505af1158015611cfc573d6000803e3d6000fd5b5050505050565b808210611d45576040517f08c379a0000000000000000000000000000000000000000000000000000000008152600401611d3c906157c4565b60405180910390fd5b600160046000828254611d589190615686565b92505081905550600060045490506000600660008381526020019081526020016000209050838160000181905550828160010181905550338160040160006101000a81548173ffffffffffffffffffffffffffffffffffffffff021916908373ffffffffffffffffffffffffffffffffffffffff16021790555060018160060160003373ffffffffffffffffffffffffffffffffffffffff1673ffffffffffffffffffffffffffffffffffffffff16815260200190815260200160002060006101000a81548160ff021916908315150217905550806002016000815480929190611e419061512c565b919050555080600701339080600181540180825580915050600190039060005260206000200160009091909190916101000a81548173ffffffffffffffffffffffffffffffffffffffff021916908373ffffffffffffffffffffffffffffffffffffffff160217905550611ec73383600060405180602001604052806000815250612c49565b50505050565b60006006600084815260200190815260200160002090508060060160003373ffffffffffffffffffffffffffffffffffffffff1673ffffffffffffffffffffffffffffffffffffffff16815260200190815260200160002060009054906101000a900460ff16611f72576040517f08c379a0000000000000000000000000000000000000000000000000000000008152600401611f699061522c565b60405180910390fd5b6002821015611fb6576040517f08c379a0000000000000000000000000000000000000000000000000000000008152600401611fad90615830565b60405180910390fd5b600a611fc233856109ca565b1015612003576040517f08c379a0000000000000000000000000000000000000000000000000000000008152600401611ffa9061589c565b60405180910390fd5b61200f3384600a612ce2565b6000816003015490506000826005016000838152602001908152602001600020905083816001018190555082600301600081548092919061204f9061512c565b91905055505050505050565b612063612e4d565b8067ffffffffffffffff1660088190555050565b6000600360009054906101000a900473ffffffffffffffffffffffffffffffffffffffff16905090565b60085481565b3073ffffffffffffffffffffffffffffffffffffffff168273ffffffffffffffffffffffffffffffffffffffff1614612115576040517f08c379a000000000000000000000000000000000000000000000000000000000815260040161210c90615908565b60405180910390fd5b61211f8282612f9a565b5050565b600a81565b60096020528060005260406000206000915090505481565b6007602052816000526040600020602052806000526040600020600091509150505481565b600080612173858585610b06565b9050670de0b6b3a764000081600561218b9190614f69565b6121959190614fda565b9150509392505050565b6121a7612e4d565b600073ffffffffffffffffffffffffffffffffffffffff168173ffffffffffffffffffffffffffffffffffffffff1603612216576040517f08c379a000000000000000000000000000000000000000000000000000000000815260040161220d90615974565b60405180910390fd5b600073ffffffffffffffffffffffffffffffffffffffff16600560009054906101000a900473ffffffffffffffffffffffffffffffffffffffff1673ffffffffffffffffffffffffffffffffffffffff16146122a7576040517f08c379a000000000000000000000000000000000000000000000000000000000815260040161229e906159e0565b60405180910390fd5b80600560006101000a81548173ffffffffffffffffffffffffffffffffffffffff021916908373ffffffffffffffffffffffffffffffffffffffff16021790555050565b6040517f08c379a000000000000000000000000000000000000000000000000000000000815260040161231d90615a4c565b60405180910390fd5b6000600660008581526020019081526020016000209050600081600501600085815260200190815260200160002090508160060160003373ffffffffffffffffffffffffffffffffffffffff1673ffffffffffffffffffffffffffffffffffffffff16815260200190815260200160002060009054906101000a900460ff166123e4576040517f08c379a00000000000000000000000000000000000000000000000000000000081526004016123db9061522c565b60405180910390fd5b8060030160003373ffffffffffffffffffffffffffffffffffffffff1673ffffffffffffffffffffffffffffffffffffffff16815260200190815260200160002060009054906101000a900460ff1615612473576040517f08c379a000000000000000000000000000000000000000000000000000000000815260040161246a90615ab8565b60405180910390fd5b600561247f33876109ca565b10156124c0576040517f08c379a00000000000000000000000000000000000000000000000000000000081526004016124b79061589c565b60405180910390fd5b80600101548310612506576040517f08c379a00000000000000000000000000000000000000000000000000000000081526004016124fd90614f1a565b60405180910390fd5b61251233866005612ce2565b60018160030160003373ffffffffffffffffffffffffffffffffffffffff1673ffffffffffffffffffffffffffffffffffffffff16815260200190815260200160002060006101000a81548160ff021916908315150217905550600581600001600085815260200190815260200160002060000160008282546125959190615686565b92505081905550600581600001600085815260200190815260200160002060010160003373ffffffffffffffffffffffffffffffffffffffff1673ffffffffffffffffffffffffffffffffffffffff16815260200190815260200160002060008282546126029190615686565b92505081905550600581600201600082825461261e9190615686565b925050819055505050505050565b6040517f08c379a000000000000000000000000000000000000000000000000000000000815260040161265e906154f9565b60405180910390fd5b6000600160008473ffffffffffffffffffffffffffffffffffffffff1673ffffffffffffffffffffffffffffffffffffffff16815260200190815260200160002060008373ffffffffffffffffffffffffffffffffffffffff1673ffffffffffffffffffffffffffffffffffffffff16815260200190815260200160002060009054906101000a900460ff16905092915050565b612703613bc3565b60006006600084815260200190815260200160002090506000816003015467ffffffffffffffff81111561273a5761273961404f565b5b60405190808252806020026020018201604052801561277357816020015b612760613c08565b8152602001906001900390816127585790505b50905060005b82600301548110156128f157600083600501600083815260200190815260200160002090506000816001015467ffffffffffffffff8111156127be576127bd61404f565b5b6040519080825280602002602001820160405280156127f757816020015b6127e4613c47565b8152602001906001900390816127dc5790505b50905060005b8260010154811015612867576040518060400160405280828152602001846000016000848152602001908152602001600020600001548152508282815181106128495761284861506b565b5b6020026020010181905250808061285f9061512c565b9150506127fd565b506040518060e00160405280848152602001836001015481526020018360020154815260200183600601548152602001836007015481526020018360080160009054906101000a900460ff1615158152602001828152508484815181106128d1576128d061506b565b5b6020026020010181905250505080806128e99061512c565b915050612779565b506040518060a0016040528085815260200183600001548152602001836001015481526020018360040160009054906101000a900473ffffffffffffffffffffffffffffffffffffffff1673ffffffffffffffffffffffffffffffffffffffff1681526020018281525092505050919050565b603381565b6006600084815260200190815260200160002060040160149054906101000a900460ff16806129ad5750600660008481526020019081526020016000206001015442115b6129ec576040517f08c379a00000000000000000000000000000000000000000000000000000000081526004016129e39061510c565b60405180910390fd5b6129f98585858585612fb0565b5050505050565b612a08612e4d565b600073ffffffffffffffffffffffffffffffffffffffff168173ffffffffffffffffffffffffffffffffffffffff1603612a7a5760006040517f1e4fbdf7000000000000000000000000000000000000000000000000000000008152600401612a719190614bed565b60405180910390fd5b612a8381612ed4565b50565b612a8e612db1565b73ffffffffffffffffffffffffffffffffffffffff168373ffffffffffffffffffffffffffffffffffffffff1614158015612ad75750612ad583612ad0612db1565b612667565b155b15612b2257612ae4612db1565b836040517fe237d922000000000000000000000000000000000000000000000000000000008152600401612b199291906156ba565b60405180910390fd5b612b2d838383612ce2565b505050565b600a81565b60007f01ffc9a7000000000000000000000000000000000000000000000000000000007bffffffffffffffffffffffffffffffffffffffffffffffffffffffff1916827bffffffffffffffffffffffffffffffffffffffffffffffffffffffff1916149050919050565b6000612bab612db1565b90508073ffffffffffffffffffffffffffffffffffffffff168673ffffffffffffffffffffffffffffffffffffffff1614158015612bf05750612bee8682612667565b155b15612c345780866040517fe237d922000000000000000000000000000000000000000000000000000000008152600401612c2b9291906156ba565b60405180910390fd5b612c418686868686613058565b505050505050565b600073ffffffffffffffffffffffffffffffffffffffff168473ffffffffffffffffffffffffffffffffffffffff1603612cbb5760006040517f57f447ce000000000000000000000000000000000000000000000000000000008152600401612cb29190614bed565b60405180910390fd5b600080612cc88585613150565b91509150612cda600087848487613180565b505050505050565b600073ffffffffffffffffffffffffffffffffffffffff168373ffffffffffffffffffffffffffffffffffffffff1603612d545760006040517f01a83514000000000000000000000000000000000000000000000000000000008152600401612d4b9190614bed565b60405180910390fd5b600080612d618484613150565b91509150612d82856000848460405180602001604052806000815250613180565b5050505050565b600060208202602084010151905092915050565b600060208202602084010151905092915050565b600033905090565b600073ffffffffffffffffffffffffffffffffffffffff168373ffffffffffffffffffffffffffffffffffffffff1603612e2b5760006040517f01a83514000000000000000000000000000000000000000000000000000000008152600401612e229190614bed565b60405180910390fd5b612e48836000848460405180602001604052806000815250613180565b505050565b612e55612db1565b73ffffffffffffffffffffffffffffffffffffffff16612e73612077565b73ffffffffffffffffffffffffffffffffffffffff1614612ed257612e96612db1565b6040517f118cdaa7000000000000000000000000000000000000000000000000000000008152600401612ec99190614bed565b60405180910390fd5b565b6000600360009054906101000a900473ffffffffffffffffffffffffffffffffffffffff16905081600360006101000a81548173ffffffffffffffffffffffffffffffffffffffff021916908373ffffffffffffffffffffffffffffffffffffffff1602179055508173ffffffffffffffffffffffffffffffffffffffff168173ffffffffffffffffffffffffffffffffffffffff167f8be0079c531659141344cd1fd0a4f28419497f9722a3daafe3b4186f6b6457e060405160405180910390a35050565b612fac612fa5612db1565b8383613232565b5050565b6000612fba612db1565b90508073ffffffffffffffffffffffffffffffffffffffff168673ffffffffffffffffffffffffffffffffffffffff1614158015612fff5750612ffd8682612667565b155b156130435780866040517fe237d92200000000000000000000000000000000000000000000000000000000815260040161303a9291906156ba565b60405180910390fd5b61305086868686866133a2565b505050505050565b600073ffffffffffffffffffffffffffffffffffffffff168473ffffffffffffffffffffffffffffffffffffffff16036130ca5760006040517f57f447ce0000000000000000000000000000000000000000000000000000000081526004016130c19190614bed565b60405180910390fd5b600073ffffffffffffffffffffffffffffffffffffffff168573ffffffffffffffffffffffffffffffffffffffff160361313c5760006040517f01a835140000000000000000000000000000000000000000000000000000000081526004016131339190614bed565b60405180910390fd5b6131498585858585613180565b5050505050565b60608060405191506001825283602083015260408201905060018152826020820152604081016040529250929050565b61318c858585856134ad565b600073ffffffffffffffffffffffffffffffffffffffff168473ffffffffffffffffffffffffffffffffffffffff161461322b5760006131ca612db1565b9050600184510361321a5760006131eb600086612d9d90919063ffffffff16565b90506000613203600086612d9d90919063ffffffff16565b905061321383898985858961385b565b5050613229565b613228818787878787613a0f565b5b505b5050505050565b600073ffffffffffffffffffffffffffffffffffffffff168273ffffffffffffffffffffffffffffffffffffffff16036132a45760006040517fced3e10000000000000000000000000000000000000000000000000000000000815260040161329b9190614bed565b60405180910390fd5b80600160008573ffffffffffffffffffffffffffffffffffffffff1673ffffffffffffffffffffffffffffffffffffffff16815260200190815260200160002060008473ffffffffffffffffffffffffffffffffffffffff1673ffffffffffffffffffffffffffffffffffffffff16815260200190815260200160002060006101000a81548160ff0219169083151502179055508173ffffffffffffffffffffffffffffffffffffffff168373ffffffffffffffffffffffffffffffffffffffff167f17307eab39ab6107e8899845ad3d59bd9653f200f220920489ca2b5937696c31836040516133959190613e13565b60405180910390a3505050565b600073ffffffffffffffffffffffffffffffffffffffff168473ffffffffffffffffffffffffffffffffffffffff16036134145760006040517f57f447ce00000000000000000000000000000000000000000000000000000000815260040161340b9190614bed565b60405180910390fd5b600073ffffffffffffffffffffffffffffffffffffffff168573ffffffffffffffffffffffffffffffffffffffff16036134865760006040517f01a8351400000000000000000000000000000000000000000000000000000000815260040161347d9190614bed565b60405180910390fd5b6000806134938585613150565b915091506134a48787848487613180565b50505050505050565b80518251146134f757815181516040517f5b0599910000000000000000000000000000000000000000000000000000000081526004016134ee929190615519565b60405180910390fd5b6000613501612db1565b905060005b83518110156137165760006135248286612d9d90919063ffffffff16565b9050600061353b8386612d9d90919063ffffffff16565b9050600073ffffffffffffffffffffffffffffffffffffffff168873ffffffffffffffffffffffffffffffffffffffff161461366857600080600084815260200190815260200160002060008a73ffffffffffffffffffffffffffffffffffffffff1673ffffffffffffffffffffffffffffffffffffffff1681526020019081526020016000205490508181101561361057888183856040517f03dee4c50000000000000000000000000000000000000000000000000000000081526004016136079493929190615324565b60405180910390fd5b81810360008085815260200190815260200160002060008b73ffffffffffffffffffffffffffffffffffffffff1673ffffffffffffffffffffffffffffffffffffffff16815260200190815260200160002081905550505b600073ffffffffffffffffffffffffffffffffffffffff168773ffffffffffffffffffffffffffffffffffffffff1614613703578060008084815260200190815260200160002060008973ffffffffffffffffffffffffffffffffffffffff1673ffffffffffffffffffffffffffffffffffffffff16815260200190815260200160002060008282546136fb9190615686565b925050819055505b50508061370f9061512c565b9050613506565b5060018351036137d5576000613736600085612d9d90919063ffffffff16565b9050600061374e600085612d9d90919063ffffffff16565b90508573ffffffffffffffffffffffffffffffffffffffff168773ffffffffffffffffffffffffffffffffffffffff168473ffffffffffffffffffffffffffffffffffffffff167fc3d58168c5ae7397731d063d5bbf3d657854427343f4c083240f7aacaa2d0f6285856040516137c6929190615519565b60405180910390a45050613854565b8373ffffffffffffffffffffffffffffffffffffffff168573ffffffffffffffffffffffffffffffffffffffff168273ffffffffffffffffffffffffffffffffffffffff167f4a39dc06d4c0dbc64b70af90fd698a233a518aa5d07e595d983b8c0526c8f7fb868660405161384b929190615ad8565b60405180910390a45b5050505050565b60008473ffffffffffffffffffffffffffffffffffffffff163b1115613a07578373ffffffffffffffffffffffffffffffffffffffff1663f23a6e6187878686866040518663ffffffff1660e01b81526004016138bc959493929190615b64565b6020604051808303816000875af19250505080156138f857506040513d601f19601f820116820180604052508101906138f59190615bd3565b60015b61397c573d8060008114613928576040519150601f19603f3d011682016040523d82523d6000602084013e61392d565b606091505b50600081510361397457846040517f57f447ce00000000000000000000000000000000000000000000000000000000815260040161396b9190614bed565b60405180910390fd5b805181602001fd5b63f23a6e6160e01b7bffffffffffffffffffffffffffffffffffffffffffffffffffffffff1916817bffffffffffffffffffffffffffffffffffffffffffffffffffffffff191614613a0557846040517f57f447ce0000000000000000000000000000000000000000000000000000000081526004016139fc9190614bed565b60405180910390fd5b505b505050505050565b60008473ffffffffffffffffffffffffffffffffffffffff163b1115613bbb578373ffffffffffffffffffffffffffffffffffffffff1663bc197c8187878686866040518663ffffffff1660e01b8152600401613a70959493929190615c00565b6020604051808303816000875af1925050508015613aac57506040513d601f19601f82011682018060405250810190613aa99190615bd3565b60015b613b30573d8060008114613adc576040519150601f19603f3d011682016040523d82523d6000602084013e613ae1565b606091505b506000815103613b2857846040517f57f447ce000000000000000000000000000000000000000000000000000000008152600401613b1f9190614bed565b60405180910390fd5b805181602001fd5b63bc197c8160e01b7bffffffffffffffffffffffffffffffffffffffffffffffffffffffff1916817bffffffffffffffffffffffffffffffffffffffffffffffffffffffff191614613bb957846040517f57f447ce000000000000000000000000000000000000000000000000000000008152600401613bb09190614bed565b60405180910390fd5b505b505050505050565b6040518060a00160405280600081526020016000815260200160008152602001600073ffffffffffffffffffffffffffffffffffffffff168152602001606081525090565b6040518060e001604052806000815260200160008152602001600081526020016000815260200160008152602001600015158152602001606081525090565b604051806040016040528060008152602001600081525090565b6000604051905090565b600080fd5b600080fd5b600073ffffffffffffffffffffffffffffffffffffffff82169050919050565b6000613ca082613c75565b9050919050565b613cb081613c95565b8114613cbb57600080fd5b50565b600081359050613ccd81613ca7565b92915050565b6000819050919050565b613ce681613cd3565b8114613cf157600080fd5b50565b600081359050613d0381613cdd565b92915050565b60008060408385031215613d2057613d1f613c6b565b5b6000613d2e85828601613cbe565b9250506020613d3f85828601613cf4565b9150509250929050565b613d5281613cd3565b82525050565b6000602082019050613d6d6000830184613d49565b92915050565b60007fffffffff0000000000000000000000000000000000000000000000000000000082169050919050565b613da881613d73565b8114613db357600080fd5b50565b600081359050613dc581613d9f565b92915050565b600060208284031215613de157613de0613c6b565b5b6000613def84828501613db6565b91505092915050565b60008115159050919050565b613e0d81613df8565b82525050565b6000602082019050613e286000830184613e04565b92915050565b600080600060608486031215613e4757613e46613c6b565b5b6000613e5586828701613cf4565b9350506020613e6686828701613cf4565b9250506040613e7786828701613cf4565b9150509250925092565b600060208284031215613e9757613e96613c6b565b5b6000613ea584828501613cf4565b91505092915050565b613eb781613c95565b82525050565b600060c082019050613ed26000830189613d49565b613edf6020830188613d49565b613eec6040830187613d49565b613ef96060830186613d49565b613f066080830185613eae565b613f1360a0830184613e04565b979650505050505050565b600081519050919050565b600082825260208201905092915050565b60005b83811015613f58578082015181840152602081019050613f3d565b60008484015250505050565b6000601f19601f8301169050919050565b6000613f8082613f1e565b613f8a8185613f29565b9350613f9a818560208601613f3a565b613fa381613f64565b840191505092915050565b60006020820190508181036000830152613fc88184613f75565b905092915050565b6000819050919050565b6000613ff5613ff0613feb84613c75565b613fd0565b613c75565b9050919050565b600061400782613fda565b9050919050565b600061401982613ffc565b9050919050565b6140298161400e565b82525050565b60006020820190506140446000830184614020565b92915050565b600080fd5b7f4e487b7100000000000000000000000000000000000000000000000000000000600052604160045260246000fd5b61408782613f64565b810181811067ffffffffffffffff821117156140a6576140a561404f565b5b80604052505050565b60006140b9613c61565b90506140c5828261407e565b919050565b600067ffffffffffffffff8211156140e5576140e461404f565b5b602082029050602081019050919050565b600080fd5b600061410e614109846140ca565b6140af565b90508083825260208201905060208402830185811115614131576141306140f6565b5b835b8181101561415a57806141468882613cf4565b845260208401935050602081019050614133565b5050509392505050565b600082601f8301126141795761417861404a565b5b81356141898482602086016140fb565b91505092915050565b600080fd5b600067ffffffffffffffff8211156141b2576141b161404f565b5b6141bb82613f64565b9050602081019050919050565b82818337600083830152505050565b60006141ea6141e584614197565b6140af565b90508281526020810184848401111561420657614205614192565b5b6142118482856141c8565b509392505050565b600082601f83011261422e5761422d61404a565b5b813561423e8482602086016141d7565b91505092915050565b600080600080600060a0868803121561426357614262613c6b565b5b600061427188828901613cbe565b955050602061428288828901613cbe565b945050604086013567ffffffffffffffff8111156142a3576142a2613c70565b5b6142af88828901614164565b935050606086013567ffffffffffffffff8111156142d0576142cf613c70565b5b6142dc88828901614164565b925050608086013567ffffffffffffffff8111156142fd576142fc613c70565b5b61430988828901614219565b9150509295509295909350565b600067ffffffffffffffff82169050919050565b61433381614316565b811461433e57600080fd5b50565b6000813590506143508161432a565b92915050565b600080fd5b60008083601f8401126143715761437061404a565b5b8235905067ffffffffffffffff81111561438e5761438d614356565b5b6020830191508360018202830111156143aa576143a96140f6565b5b9250929050565b6000806000806000608086880312156143cd576143cc613c6b565b5b60006143db88828901613cbe565b95505060206143ec88828901614341565b94505060406143fd88828901614341565b935050606086013567ffffffffffffffff81111561441e5761441d613c70565b5b61442a8882890161435b565b92509250509295509295909350565b600081519050919050565b600082825260208201905092915050565b6000819050602082019050919050565b61446e81613cd3565b82525050565b61447d81613c95565b82525050565b600081519050919050565b600082825260208201905092915050565b6000819050602082019050919050565b6144b881613df8565b82525050565b600081519050919050565b600082825260208201905092915050565b6000819050602082019050919050565b6040820160008201516145006000850182614465565b5060208201516145136020850182614465565b50505050565b600061452583836144ea565b60408301905092915050565b6000602082019050919050565b6000614549826144be565b61455381856144c9565b935061455e836144da565b8060005b8381101561458f5781516145768882614519565b975061458183614531565b925050600181019050614562565b5085935050505092915050565b600060e0830160008301516145b46000860182614465565b5060208301516145c76020860182614465565b5060408301516145da6040860182614465565b5060608301516145ed6060860182614465565b5060808301516146006080860182614465565b5060a083015161461360a08601826144af565b5060c083015184820360c086015261462b828261453e565b9150508091505092915050565b6000614644838361459c565b905092915050565b6000602082019050919050565b600061466482614483565b61466e818561448e565b9350836020820285016146808561449f565b8060005b858110156146bc578484038952815161469d8582614638565b94506146a88361464c565b925060208a01995050600181019050614684565b50829750879550505050505092915050565b600060a0830160008301516146e66000860182614465565b5060208301516146f96020860182614465565b50604083015161470c6040860182614465565b50606083015161471f6060860182614474565b50608083015184820360808601526147378282614659565b9150508091505092915050565b600061475083836146ce565b905092915050565b6000602082019050919050565b600061477082614439565b61477a8185614444565b93508360208202850161478c85614455565b8060005b858110156147c857848403895281516147a98582614744565b94506147b483614758565b925060208a01995050600181019050614790565b50829750879550505050505092915050565b600060208201905081810360008301526147f48184614765565b905092915050565b600061480782613c95565b9050919050565b614817816147fc565b811461482257600080fd5b50565b6000813590506148348161480e565b92915050565b600080600080600080600060c0888a03121561485957614858613c6b565b5b60006148678a828b01613cbe565b97505060206148788a828b01614341565b96505060406148898a828b01614341565b955050606061489a8a828b01614825565b94505060806148ab8a828b01613cf4565b93505060a088013567ffffffffffffffff8111156148cc576148cb613c70565b5b6148d88a828b0161435b565b925092505092959891949750929550565b600067ffffffffffffffff8211156149045761490361404f565b5b602082029050602081019050919050565b6000614928614923846148e9565b6140af565b9050808382526020820190506020840283018581111561494b5761494a6140f6565b5b835b8181101561497457806149608882613cbe565b84526020840193505060208101905061494d565b5050509392505050565b600082601f8301126149935761499261404a565b5b81356149a3848260208601614915565b91505092915050565b600080604083850312156149c3576149c2613c6b565b5b600083013567ffffffffffffffff8111156149e1576149e0613c70565b5b6149ed8582860161497e565b925050602083013567ffffffffffffffff811115614a0e57614a0d613c70565b5b614a1a85828601614164565b9150509250929050565b600081519050919050565b600082825260208201905092915050565b6000819050602082019050919050565b6000614a5c8383614465565b60208301905092915050565b6000602082019050919050565b6000614a8082614a24565b614a8a8185614a2f565b9350614a9583614a40565b8060005b83811015614ac6578151614aad8882614a50565b9750614ab883614a68565b925050600181019050614a99565b5085935050505092915050565b60006020820190508181036000830152614aed8184614a75565b905092915050565b600080600060608486031215614b0e57614b0d613c6b565b5b6000614b1c86828701613cbe565b935050602084013567ffffffffffffffff811115614b3d57614b3c613c70565b5b614b4986828701614164565b925050604084013567ffffffffffffffff811115614b6a57614b69613c70565b5b614b7686828701614164565b9150509250925092565b60008060408385031215614b9757614b96613c6b565b5b6000614ba585828601613cf4565b9250506020614bb685828601613cf4565b9150509250929050565b600060208284031215614bd657614bd5613c6b565b5b6000614be484828501614341565b91505092915050565b6000602082019050614c026000830184613eae565b92915050565b614c1181613df8565b8114614c1c57600080fd5b50565b600081359050614c2e81614c08565b92915050565b60008060408385031215614c4b57614c4a613c6b565b5b6000614c5985828601613cbe565b9250506020614c6a85828601614c1f565b9150509250929050565b600060208284031215614c8a57614c89613c6b565b5b6000614c9884828501613cbe565b91505092915050565b6000614cac82613c95565b9050919050565b614cbc81614ca1565b8114614cc757600080fd5b50565b600081359050614cd981614cb3565b92915050565b600060208284031215614cf557614cf4613c6b565b5b6000614d0384828501614cca565b91505092915050565b60008060408385031215614d2357614d22613c6b565b5b6000614d3185828601613cbe565b9250506020614d4285828601613cbe565b9150509250929050565b600060a083016000830151614d646000860182614465565b506020830151614d776020860182614465565b506040830151614d8a6040860182614465565b506060830151614d9d6060860182614474565b5060808301518482036080860152614db58282614659565b9150508091505092915050565b60006020820190508181036000830152614ddc8184614d4c565b905092915050565b600080600080600060a08688031215614e0057614dff613c6b565b5b6000614e0e88828901613cbe565b9550506020614e1f88828901613cbe565b9450506040614e3088828901613cf4565b9350506060614e4188828901613cf4565b925050608086013567ffffffffffffffff811115614e6257614e61613c70565b5b614e6e88828901614219565b9150509295509295909350565b600080600060608486031215614e9457614e93613c6b565b5b6000614ea286828701613cbe565b9350506020614eb386828701613cf4565b9250506040614ec486828701613cf4565b9150509250925092565b7f496e76616c69642063686f696365000000000000000000000000000000000000600082015250565b6000614f04600e83613f29565b9150614f0f82614ece565b602082019050919050565b60006020820190508181036000830152614f3381614ef7565b9050919050565b7f4e487b7100000000000000000000000000000000000000000000000000000000600052601160045260246000fd5b6000614f7482613cd3565b9150614f7f83613cd3565b9250828202614f8d81613cd3565b91508282048414831517614fa457614fa3614f3a565b5b5092915050565b7f4e487b7100000000000000000000000000000000000000000000000000000000600052601260045260246000fd5b6000614fe582613cd3565b9150614ff083613cd3565b92508261500057614fff614fab565b5b828204905092915050565b7f4e487b7100000000000000000000000000000000000000000000000000000000600052602260045260246000fd5b6000600282049050600182168061505257607f821691505b6020821081036150655761506461500b565b5b50919050565b7f4e487b7100000000000000000000000000000000000000000000000000000000600052603260045260246000fd5b7f5472616e7366657273206c6f636b656420647572696e6720616374697665206560008201527f76656e7400000000000000000000000000000000000000000000000000000000602082015250565b60006150f6602483613f29565b91506151018261509a565b604082019050919050565b60006020820190508181036000830152615125816150e9565b9050919050565b600061513782613cd3565b91507fffffffffffffffffffffffffffffffffffffffffffffffffffffffffffffffff820361516957615168614f3a565b5b600182019050919050565b7f496e76616c696420736368656d6120666f72206576656e740000000000000000600082015250565b60006151aa601883613f29565b91506151b582615174565b602082019050919050565b600060208201905081810360008301526151d98161519d565b9050919050565b7f4e6f742061207061727469636970616e74000000000000000000000000000000600082015250565b6000615216601183613f29565b9150615221826151e0565b602082019050919050565b6000602082019050818103600083015261524581615209565b9050919050565b7f416c726561647920617474657374656400000000000000000000000000000000600082015250565b6000615282601083613f29565b915061528d8261524c565b602082019050919050565b600060208201905081810360008301526152b181615275565b9050919050565b7f5175657374696f6e20616c7265616479207265736f6c76656400000000000000600082015250565b60006152ee601983613f29565b91506152f9826152b8565b602082019050919050565b6000602082019050818103600083015261531d816152e1565b9050919050565b60006080820190506153396000830187613eae565b6153466020830186613d49565b6153536040830185613d49565b6153606060830184613d49565b95945050505050565b7f4576656e74206e6f742061637469766500000000000000000000000000000000600082015250565b600061539f601083613f29565b91506153aa82615369565b602082019050919050565b600060208201905081810360008301526153ce81615392565b9050919050565b7f416c7265616479206a6f696e6564000000000000000000000000000000000000600082015250565b600061540b600e83613f29565b9150615416826153d5565b602082019050919050565b6000602082019050818103600083015261543a816153fe565b9050919050565b7f496e73756666696369656e742062616c616e636520666f72207374616b650000600082015250565b6000615477601e83613f29565b915061548282615441565b602082019050919050565b600060208201905081810360008301526154a68161546a565b9050919050565b7f455243323020666565206e6f7420737570706f72746564000000000000000000600082015250565b60006154e3601783613f29565b91506154ee826154ad565b602082019050919050565b60006020820190508181036000830152615512816154d6565b9050919050565b600060408201905061552e6000830185613d49565b61553b6020830184613d49565b9392505050565b7f4f6e6c79206f7267616e697a65722063616e20636f6e636c7564650000000000600082015250565b6000615578601b83613f29565b915061558382615542565b602082019050919050565b600060208201905081810360008301526155a78161556b565b9050919050565b7f4576656e74206e6f7420656e6465640000000000000000000000000000000000600082015250565b60006155e4600f83613f29565b91506155ef826155ae565b602082019050919050565b60006020820190508181036000830152615613816155d7565b9050919050565b7f4576656e7420616c726561647920636f6e636c75646564000000000000000000600082015250565b6000615650601783613f29565b915061565b8261561a565b602082019050919050565b6000602082019050818103600083015261567f81615643565b9050919050565b600061569182613cd3565b915061569c83613cd3565b92508282019050808211156156b4576156b3614f3a565b5b92915050565b60006040820190506156cf6000830185613eae565b6156dc6020830184613eae565b9392505050565b7f4e6f204f445a20746f20636c61696d0000000000000000000000000000000000600082015250565b6000615719600f83613f29565b9150615724826156e3565b602082019050919050565b600060208201905081810360008301526157488161570c565b9050919050565b60006040820190506157646000830185613eae565b6157716020830184613d49565b9392505050565b7f496e76616c69642074696d652072616e67650000000000000000000000000000600082015250565b60006157ae601283613f29565b91506157b982615778565b602082019050919050565b600060208201905081810360008301526157dd816157a1565b9050919050565b7f4174206c6561737420322063686f696365732072657175697265640000000000600082015250565b600061581a601b83613f29565b9150615825826157e4565b602082019050919050565b600060208201905081810360008301526158498161580d565b9050919050565b7f496e73756666696369656e742062616c616e6365000000000000000000000000600082015250565b6000615886601483613f29565b915061589182615850565b602082019050919050565b600060208201905081810360008301526158b581615879565b9050919050565b7f43616e206f6e6c7920617070726f7665207468697320636f6e74726163740000600082015250565b60006158f2601e83613f29565b91506158fd826158bc565b602082019050919050565b60006020820190508181036000830152615921816158e5565b9050919050565b7f496e76616c696420616464726573730000000000000000000000000000000000600082015250565b600061595e600f83613f29565b915061596982615928565b602082019050919050565b6000602082019050818103600083015261598d81615951565b9050919050565b7f416c726561647920736574000000000000000000000000000000000000000000600082015250565b60006159ca600b83613f29565b91506159d582615994565b602082019050919050565b600060208201905081810360008301526159f9816159bd565b9050919050565b7f5265766f636174696f6e206e6f7420737570706f727465640000000000000000600082015250565b6000615a36601883613f29565b9150615a4182615a00565b602082019050919050565b60006020820190508181036000830152615a6581615a29565b9050919050565b7f416c726561647920616e73776572656400000000000000000000000000000000600082015250565b6000615aa2601083613f29565b9150615aad82615a6c565b602082019050919050565b60006020820190508181036000830152615ad181615a95565b9050919050565b60006040820190508181036000830152615af28185614a75565b90508181036020830152615b068184614a75565b90509392505050565b600081519050919050565b600082825260208201905092915050565b6000615b3682615b0f565b615b408185615b1a565b9350615b50818560208601613f3a565b615b5981613f64565b840191505092915050565b600060a082019050615b796000830188613eae565b615b866020830187613eae565b615b936040830186613d49565b615ba06060830185613d49565b8181036080830152615bb28184615b2b565b90509695505050505050565b600081519050615bcd81613d9f565b92915050565b600060208284031215615be957615be8613c6b565b5b6000615bf784828501615bbe565b91505092915050565b600060a082019050615c156000830188613eae565b615c226020830187613eae565b8181036040830152615c348186614a75565b90508181036060830152615c488185614a75565b90508181036080830152615c5c8184615b2b565b9050969550505050505056fea2646970667358221220236649318d78f99fd361f1376e8ca3405075f5b12a3bc118e2fd9f661cdc8e9e64736f6c6343000814003368747470733a2f2f6170692e6578616d706c652e636f6d2f746f6b656e2f7b69647d2e6a736f6e",
  "linkReferences": {},
  "deployedLinkReferences": {}
}