{
  "_format": "hh-sol-artifact-1",
  "contractName": "Odz20",
  "sourceName": "contracts/Odz20.sol",
  "abi": [
    {
      "inputs": [],
      "stateMutability": "nonpayable",
      "type": "constructor"
    },
    {
      "inputs": [],
      "name": "AccessControlBadConfirmation",
      "type": "error"
    },
    {
      "inputs": [
        {
          "internalType": "address",
          "name": "account",
          "type": "address"
        },
        {
          "internalType": "bytes32",
          "name": "neededRole",
          "type": "bytes32"
        }
      ],
      "name": "AccessControlUnauthorizedAccount",
      "type": "error"
    },
    {
      "inputs": [
        {
          "internalType": "address",
          "name": "spender",
          "type": "address"
        },
        {
          "internalType": "uint256",
          "name": "allowance",
          "type": "uint256"
        },
        {
          "internalType": "uint256",
          "name": "needed",
          "type": "uint256"
        }
      ],
      "name": "ERC20InsufficientAllowance",
      "type": "error"
    },
    {
      "inputs": [
        {
          "internalType": "address",
          "name": "sender",
          "type": "address"
        },
        {
          "internalType": "uint256",
          "name": "balance",
          "type": "uint256"
        },
        {
          "internalType": "uint256",
          "name": "needed",
          "type": "uint256"
        }
      ],
      "name": "ERC20InsufficientBalance",
      "type": "error"
    },
    {
      "inputs": [
        {
          "internalType": "address",
          "name": "approver",
          "type": "address"
        }
      ],
      "name": "ERC20InvalidApprover",
      "type": "error"
    },
    {
      "inputs": [
        {
          "internalType": "address",
          "name": "receiver",
          "type": "address"
        }
      ],
      "name": "ERC20InvalidReceiver",
      "type": "error"
    },
    {
      "inputs": [
        {
          "internalType": "address",
          "name": "sender",
          "type": "address"
        }
      ],
      "name": "ERC20InvalidSender",
      "type": "error"
    },
    {
      "inputs": [
        {
          "internalType": "address",
          "name": "spender",
          "type": "address"
        }
      ],
      "name": "ERC20InvalidSpender",
      "type": "error"
    },
    {
      "anonymous": false,
      "inputs": [
        {
          "indexed": true,
          "internalType": "address",
          "name": "owner",
          "type": "address"
        },
        {
          "indexed": true,
          "internalType": "address",
          "name": "spender",
          "type": "address"
        },
        {
          "indexed": false,
          "internalType": "uint256",
          "name": "value",
          "type": "uint256"
        }
      ],
      "name": "Approval",
      "type": "event"
    },
    {
      "anonymous": false,
      "inputs": [
        {
          "indexed": true,
          "internalType": "bytes32",
          "name": "role",
          "type": "bytes32"
        },
        {
          "indexed": true,
          "internalType": "bytes32",
          "name": "previousAdminRole",
          "type": "bytes32"
        },
        {
          "indexed": true,
          "internalType": "bytes32",
          "name": "newAdminRole",
          "type": "bytes32"
        }
      ],
      "name": "RoleAdminChanged",
      "type": "event"
    },
    {
      "anonymous": false,
      "inputs": [
        {
          "indexed": true,
          "internalType": "bytes32",
          "name": "role",
          "type": "bytes32"
        },
        {
          "indexed": true,
          "internalType": "address",
          "name": "account",
          "type": "address"
        },
        {
          "indexed": true,
          "internalType": "address",
          "name": "sender",
          "type": "address"
        }
      ],
      "name": "RoleGranted",
      "type": "event"
    },
    {
      "anonymous": false,
      "inputs": [
        {
          "indexed": true,
          "internalType": "bytes32",
          "name": "role",
          "type": "bytes32"
        },
        {
          "indexed": true,
          "internalType": "address",
          "name": "account",
          "type": "address"
        },
        {
          "indexed": true,
          "internalType": "address",
          "name": "sender",
          "type": "address"
        }
      ],
      "name": "RoleRevoked",
      "type": "event"
    },
    {
      "anonymous": false,
      "inputs": [
        {
          "indexed": true,
          "internalType": "address",
          "name": "from",
          "type": "address"
        },
        {
          "indexed": true,
          "internalType": "address",
          "name": "to",
          "type": "address"
        },
        {
          "indexed": false,
          "internalType": "uint256",
          "name": "value",
          "type": "uint256"
        }
      ],
      "name": "Transfer",
      "type": "event"
    },
    {
      "inputs": [],
      "name": "DEFAULT_ADMIN_ROLE",
      "outputs": [
        {
          "internalType": "bytes32",
          "name": "",
          "type": "bytes32"
        }
      ],
      "stateMutability": "view",
      "type": "function"
    },
    {
      "inputs": [],
      "name": "MINTER_ROLE",
      "outputs": [
        {
          "internalType": "bytes32",
          "name": "",
          "type": "bytes32"
        }
      ],
      "stateMutability": "view",
      "type": "function"
    },
    {
      "inputs": [
        {
          "internalType": "address",
          "name": "owner",
          "type": "address"
        },
        {
          "internalType": "address",
          "name": "spender",
          "type": "address"
        }
      ],
      "name": "allowance",
      "outputs": [
        {
          "internalType": "uint256",
          "name": "",
          "type": "uint256"
        }
      ],
      "stateMutability": "view",
      "type": "function"
    },
    {
      "inputs": [
        {
          "internalType": "address",
          "name": "spender",
          "type": "address"
        },
        {
          "internalType": "uint256",
          "name": "value",
          "type": "uint256"
        }
      ],
      "name": "approve",
      "outputs": [
        {
          "internalType": "bool",
          "name": "",
          "type": "bool"
        }
      ],
      "stateMutability": "nonpayable",
      "type": "function"
    },
    {
      "inputs": [
        {
          "internalType": "address",
          "name": "account",
          "type": "address"
        }
      ],
      "name": "balanceOf",
      "outputs": [
        {
          "internalType": "uint256",
          "name": "",
          "type": "uint256"
        }
      ],
      "stateMutability": "view",
      "type": "function"
    },
    {
      "inputs": [],
      "name": "decimals",
      "outputs": [
        {
          "internalType": "uint8",
          "name": "",
          "type": "uint8"
        }
      ],
      "stateMutability": "view",
      "type": "function"
    },
    {
      "inputs": [
        {
          "internalType": "bytes32",
          "name": "role",
          "type": "bytes32"
        }
      ],
      "name": "getRoleAdmin",
      "outputs": [
        {
          "internalType": "bytes32",
          "name": "",
          "type": "bytes32"
        }
      ],
      "stateMutability": "view",
      "type": "function"
    },
    {
      "inputs": [
        {
          "internalType": "address",
          "name": "account",
          "type": "address"
        }
      ],
      "name": "grantMinterRole",
      "outputs": [],
      "stateMutability": "nonpayable",
      "type": "function"
    },
    {
      "inputs": [
        {
          "internalType": "bytes32",
          "name": "role",
          "type": "bytes32"
        },
        {
          "internalType": "address",
          "name": "account",
          "type": "address"
        }
      ],
      "name": "grantRole",
      "outputs": [],
      "stateMutability": "nonpayable",
      "type": "function"
    },
    {
      "inputs": [
        {
          "internalType": "bytes32",
          "name": "role",
          "type": "bytes32"
        },
        {
          "internalType": "address",
          "name": "account",
          "type": "address"
        }
      ],
      "name": "hasRole",
      "outputs": [
        {
          "internalType": "bool",
          "name": "",
          "type": "bool"
        }
      ],
      "stateMutability": "view",
      "type": "function"
    },
    {
      "inputs": [
        {
          "internalType": "address",
          "name": "to",
          "type": "address"
        },
        {
          "internalType": "uint256",
          "name": "amount",
          "type": "uint256"
        }
      ],
      "name": "mint",
      "outputs": [],
      "stateMutability": "nonpayable",
      "type": "function"
    },
    {
      "inputs": [],
      "name": "name",
      "outputs": [
        {
          "internalType": "string",
          "name": "",
          "type": "string"
        }
      ],
      "stateMutability": "view",
      "type": "function"
    },
    {
      "inputs": [],
      "name": "odzEventToken",
      "outputs": [
        {
          "internalType": "address",
          "name": "",
          "type": "address"
        }
      ],
      "stateMutability": "view",
      "type": "function"
    },
    {
      "inputs": [
        {
          "internalType": "bytes32",
          "name": "role",
          "type": "bytes32"
        },
        {
          "internalType": "address",
          "name": "callerConfirmation",
          "type": "address"
        }
      ],
      "name": "renounceRole",
      "outputs": [],
      "stateMutability": "nonpayable",
      "type": "function"
    },
    {
      "inputs": [
        {
          "internalType": "bytes32",
          "name": "role",
          "type": "bytes32"
        },
        {
          "internalType": "address",
          "name": "account",
          "type": "address"
        }
      ],
      "name": "revokeRole",
      "outputs": [],
      "stateMutability": "nonpayable",
      "type": "function"
    },
    {
      "inputs": [
        {
          "internalType": "bytes4",
          "name": "interfaceId",
          "type": "bytes4"
        }
      ],
      "name": "supportsInterface",
      "outputs": [
        {
          "internalType": "bool",
          "name": "",
          "type": "bool"
        }
      ],
      "stateMutability": "view",
      "type": "function"
    },
    {
      "inputs": [],
      "name": "symbol",
      "outputs": [
        {
          "internalType": "string",
          "name": "",
          "type": "string"
        }
      ],
      "stateMutability": "view",
      "type": "function"
    },
    {
      "inputs": [],
      "name": "totalSupply",
      "outputs": [
        {
          "internalType": "uint256",
          "name": "",
          "type": "uint256"
        }
      ],
      "stateMutability": "view",
      "type": "function"
    },
    {
      "inputs": [
        {
          "internalType": "address",
          "name": "to",
          "type": "address"
        },
        {
          "internalType": "uint256",
          "name": "value",
          "type": "uint256"
        }
      ],
      "name": "transfer",
      "outputs": [
        {
          "internalType": "bool",
          "name": "",
          "type": "bool"
        }
      ],
      "stateMutability": "nonpayable",
      "type": "function"
    },
    {
      "inputs": [
        {
          "internalType": "address",
          "name": "from",
          "type": "address"
        },
        {
          "internalType": "address",
          "name": "to",
          "type": "address"
        },
        {
          "internalType": "uint256",
          "name": "value",
          "type": "uint256"
        }
      ],
      "name": "transferFrom",
      "outputs": [
        {
          "internalType": "bool",
          "name": "",
          "type": "bool"
        }
      ],
      "stateMutability": "nonpayable",
      "type": "function"
    }
  ],
  "bytecode": "0x60806040523480156200001157600080fd5b506040518060400160405280600981526020017f4f445a20546f6b656e00000000000000000000000000000000000000000000008152506040518060400160405280600381526020017f4f445a000000000000000000000000000000000000000000000000000000000081525081600390816200008f9190620004b1565b508060049081620000a19190620004b1565b505050620000b96000801b33620000c060201b60201c565b5062000598565b6000620000d48383620001c460201b60201c565b620001b95760016005600085815260200190815260200160002060000160008473ffffffffffffffffffffffffffffffffffffffff1673ffffffffffffffffffffffffffffffffffffffff16815260200190815260200160002060006101000a81548160ff021916908315150217905550620001556200022f60201b60201c565b73ffffffffffffffffffffffffffffffffffffffff168273ffffffffffffffffffffffffffffffffffffffff16847f2f8788117e7eff1d82e926ec794901d17c78024a50270940304540a733656f0d60405160405180910390a460019050620001be565b600090505b92915050565b60006005600084815260200190815260200160002060000160008373ffffffffffffffffffffffffffffffffffffffff1673ffffffffffffffffffffffffffffffffffffffff16815260200190815260200160002060009054906101000a900460ff16905092915050565b600033905090565b600081519050919050565b7f4e487b7100000000000000000000000000000000000000000000000000000000600052604160045260246000fd5b7f4e487b7100000000000000000000000000000000000000000000000000000000600052602260045260246000fd5b60006002820490506001821680620002b957607f821691505b602082108103620002cf57620002ce62000271565b5b50919050565b60008190508160005260206000209050919050565b60006020601f8301049050919050565b600082821b905092915050565b600060088302620003397fffffffffffffffffffffffffffffffffffffffffffffffffffffffffffffffff82620002fa565b620003458683620002fa565b95508019841693508086168417925050509392505050565b6000819050919050565b6000819050919050565b6000620003926200038c62000386846200035d565b62000367565b6200035d565b9050919050565b6000819050919050565b620003ae8362000371565b620003c6620003bd8262000399565b84845462000307565b825550505050565b600090565b620003dd620003ce565b620003ea818484620003a3565b505050565b5b81811015620004125762000406600082620003d3565b600181019050620003f0565b5050565b601f82111562000461576200042b81620002d5565b6200043684620002ea565b8101602085101562000446578190505b6200045e6200045585620002ea565b830182620003ef565b50505b505050565b600082821c905092915050565b6000620004866000198460080262000466565b1980831691505092915050565b6000620004a1838362000473565b9150826002028217905092915050565b620004bc8262000237565b67ffffffffffffffff811115620004d857620004d762000242565b5b620004e48254620002a0565b620004f182828562000416565b600060209050601f83116001811462000529576000841562000514578287015190505b62000520858262000493565b86555062000590565b601f1984166200053986620002d5565b60005b8281101562000563578489015182556001820191506020850194506020810190506200053c565b868310156200058357848901516200057f601f89168262000473565b8355505b6001600288020188555050505b505050505050565b61182d80620005a86000396000f3fe608060405234801561001057600080fd5b506004361061012c5760003560e01c806340c10f19116100ad578063a217fddf11610071578063a217fddf14610357578063a9059cbb14610375578063d5391393146103a5578063d547741f146103c3578063dd62ed3e146103df5761012c565b806340c10f191461029f57806352afba34146102bb57806370a08231146102d957806391d148541461030957806395d89b41146103395761012c565b8063248a9ca3116100f4578063248a9ca3146101fd5780632f2ff15d1461022d578063313ce5671461024957806336568abe146102675780633dd1eb61146102835761012c565b806301ffc9a71461013157806306fdde0314610161578063095ea7b31461017f57806318160ddd146101af57806323b872dd146101cd575b600080fd5b61014b600480360381019061014691906112d3565b61040f565b604051610158919061131b565b60405180910390f35b610169610489565b60405161017691906113c6565b60405180910390f35b6101996004803603810190610194919061147c565b61051b565b6040516101a6919061131b565b60405180910390f35b6101b761053e565b6040516101c491906114cb565b60405180910390f35b6101e760048036038101906101e291906114e6565b610548565b6040516101f4919061131b565b60405180910390f35b6102176004803603810190610212919061156f565b610577565b60405161022491906115ab565b60405180910390f35b610247600480360381019061024291906115c6565b610597565b005b6102516105b9565b60405161025e9190611622565b60405180910390f35b610281600480360381019061027c91906115c6565b6105c2565b005b61029d6004803603810190610298919061163d565b61063d565b005b6102b960048036038101906102b4919061147c565b6106ba565b005b6102c3610740565b6040516102d09190611679565b60405180910390f35b6102f360048036038101906102ee919061163d565b610766565b60405161030091906114cb565b60405180910390f35b610323600480360381019061031e91906115c6565b6107ae565b604051610330919061131b565b60405180910390f35b610341610819565b60405161034e91906113c6565b60405180910390f35b61035f6108ab565b60405161036c91906115ab565b60405180910390f35b61038f600480360381019061038a919061147c565b6108b2565b60405161039c919061131b565b60405180910390f35b6103ad6108d5565b6040516103ba91906115ab565b60405180910390f35b6103dd60048036038101906103d891906115c6565b6108f9565b005b6103f960048036038101906103f49190611694565b61091b565b60405161040691906114cb565b60405180910390f35b60007f7965db0b000000000000000000000000000000000000000000000000000000007bffffffffffffffffffffffffffffffffffffffffffffffffffffffff1916827bffffffffffffffffffffffffffffffffffffffffffffffffffffffff191614806104825750610481826109a2565b5b9050919050565b60606003805461049890611703565b80601f01602080910402602001604051908101604052809291908181526020018280546104c490611703565b80156105115780601f106104e657610100808354040283529160200191610511565b820191906000526020600020905b8154815290600101906020018083116104f457829003601f168201915b5050505050905090565b600080610526610a0c565b9050610533818585610a14565b600191505092915050565b6000600254905090565b600080610553610a0c565b9050610560858285610a26565b61056b858585610aba565b60019150509392505050565b600060056000838152602001908152602001600020600101549050919050565b6105a082610577565b6105a981610bae565b6105b38383610bc2565b50505050565b60006012905090565b6105ca610a0c565b73ffffffffffffffffffffffffffffffffffffffff168173ffffffffffffffffffffffffffffffffffffffff161461062e576040517f6697b23200000000000000000000000000000000000000000000000000000000815260040160405180910390fd5b6106388282610cb4565b505050565b6000801b61064a81610bae565b6106747f9f2df0fed2c77648de5860a4cc508cd0818c85b8b8a1ab4ceeef8d981c8956a683610bc2565b5081600660006101000a81548173ffffffffffffffffffffffffffffffffffffffff021916908373ffffffffffffffffffffffffffffffffffffffff1602179055505050565b7f9f2df0fed2c77648de5860a4cc508cd0818c85b8b8a1ab4ceeef8d981c8956a66106e481610bae565b6106ee8383610da7565b61073b83600660009054906101000a900473ffffffffffffffffffffffffffffffffffffffff167fffffffffffffffffffffffffffffffffffffffffffffffffffffffffffffffff610a14565b505050565b600660009054906101000a900473ffffffffffffffffffffffffffffffffffffffff1681565b60008060008373ffffffffffffffffffffffffffffffffffffffff1673ffffffffffffffffffffffffffffffffffffffff168152602001908152602001600020549050919050565b60006005600084815260200190815260200160002060000160008373ffffffffffffffffffffffffffffffffffffffff1673ffffffffffffffffffffffffffffffffffffffff16815260200190815260200160002060009054906101000a900460ff16905092915050565b60606004805461082890611703565b80601f016020809104026020016040519081016040528092919081815260200182805461085490611703565b80156108a15780601f10610876576101008083540402835291602001916108a1565b820191906000526020600020905b81548152906001019060200180831161088457829003601f168201915b5050505050905090565b6000801b81565b6000806108bd610a0c565b90506108ca818585610aba565b600191505092915050565b7f9f2df0fed2c77648de5860a4cc508cd0818c85b8b8a1ab4ceeef8d981c8956a681565b61090282610577565b61090b81610bae565b6109158383610cb4565b50505050565b6000600160008473ffffffffffffffffffffffffffffffffffffffff1673ffffffffffffffffffffffffffffffffffffffff16815260200190815260200160002060008373ffffffffffffffffffffffffffffffffffffffff1673ffffffffffffffffffffffffffffffffffffffff16815260200190815260200160002054905092915050565b60007f01ffc9a7000000000000000000000000000000000000000000000000000000007bffffffffffffffffffffffffffffffffffffffffffffffffffffffff1916827bffffffffffffffffffffffffffffffffffffffffffffffffffffffff1916149050919050565b600033905090565b610a218383836001610e29565b505050565b6000610a32848461091b565b90507fffffffffffffffffffffffffffffffffffffffffffffffffffffffffffffffff8114610ab45781811015610aa4578281836040517ffb8f41b2000000000000000000000000000000000000000000000000000000008152600401610a9b93929190611734565b60405180910390fd5b610ab384848484036000610e29565b5b50505050565b600073ffffffffffffffffffffffffffffffffffffffff168373ffffffffffffffffffffffffffffffffffffffff1603610b2c5760006040517f96c6fd1e000000000000000000000000000000000000000000000000000000008152600401610b239190611679565b60405180910390fd5b600073ffffffffffffffffffffffffffffffffffffffff168273ffffffffffffffffffffffffffffffffffffffff1603610b9e5760006040517fec442f05000000000000000000000000000000000000000000000000000000008152600401610b959190611679565b60405180910390fd5b610ba9838383611000565b505050565b610bbf81610bba610a0c565b611225565b50565b6000610bce83836107ae565b610ca95760016005600085815260200190815260200160002060000160008473ffffffffffffffffffffffffffffffffffffffff1673ffffffffffffffffffffffffffffffffffffffff16815260200190815260200160002060006101000a81548160ff021916908315150217905550610c46610a0c565b73ffffffffffffffffffffffffffffffffffffffff168273ffffffffffffffffffffffffffffffffffffffff16847f2f8788117e7eff1d82e926ec794901d17c78024a50270940304540a733656f0d60405160405180910390a460019050610cae565b600090505b92915050565b6000610cc083836107ae565b15610d9c5760006005600085815260200190815260200160002060000160008473ffffffffffffffffffffffffffffffffffffffff1673ffffffffffffffffffffffffffffffffffffffff16815260200190815260200160002060006101000a81548160ff021916908315150217905550610d39610a0c565b73ffffffffffffffffffffffffffffffffffffffff168273ffffffffffffffffffffffffffffffffffffffff16847ff6391f5c32d9c69d2a47ea670b442974b53935d1edc7fd64eb21e047a839171b60405160405180910390a460019050610da1565b600090505b92915050565b600073ffffffffffffffffffffffffffffffffffffffff168273ffffffffffffffffffffffffffffffffffffffff1603610e195760006040517fec442f05000000000000000000000000000000000000000000000000000000008152600401610e109190611679565b60405180910390fd5b610e2560008383611000565b5050565b600073ffffffffffffffffffffffffffffffffffffffff168473ffffffffffffffffffffffffffffffffffffffff1603610e9b5760006040517fe602df05000000000000000000000000000000000000000000000000000000008152600401610e929190611679565b60405180910390fd5b600073ffffffffffffffffffffffffffffffffffffffff168373ffffffffffffffffffffffffffffffffffffffff1603610f0d5760006040517f94280d62000000000000000000000000000000000000000000000000000000008152600401610f049190611679565b60405180910390fd5b81600160008673ffffffffffffffffffffffffffffffffffffffff1673ffffffffffffffffffffffffffffffffffffffff16815260200190815260200160002060008573ffffffffffffffffffffffffffffffffffffffff1673ffffffffffffffffffffffffffffffffffffffff168152602001908152602001600020819055508015610ffa578273ffffffffffffffffffffffffffffffffffffffff168473ffffffffffffffffffffffffffffffffffffffff167f8c5be1e5ebec7d5bd14f71427d1e84f3dd0314c0f7b2291e5b200ac8c7c3b92584604051610ff191906114cb565b60405180910390a35b50505050565b600073ffffffffffffffffffffffffffffffffffffffff168373ffffffffffffffffffffffffffffffffffffffff1603611052578060026000828254611046919061179a565b92505081905550611125565b60008060008573ffffffffffffffffffffffffffffffffffffffff1673ffffffffffffffffffffffffffffffffffffffff168152602001908152602001600020549050818110156110de578381836040517fe450d38c0000000000000000000000000000000000000000000000000000000081526004016110d593929190611734565b60405180910390fd5b8181036000808673ffffffffffffffffffffffffffffffffffffffff1673ffffffffffffffffffffffffffffffffffffffff16815260200190815260200160002081905550505b600073ffffffffffffffffffffffffffffffffffffffff168273ffffffffffffffffffffffffffffffffffffffff160361116e57806002600082825403925050819055506111bb565b806000808473ffffffffffffffffffffffffffffffffffffffff1673ffffffffffffffffffffffffffffffffffffffff168152602001908152602001600020600082825401925050819055505b8173ffffffffffffffffffffffffffffffffffffffff168373ffffffffffffffffffffffffffffffffffffffff167fddf252ad1be2c89b69c2b068fc378daa952ba7f163c4a11628f55a4df523b3ef8360405161121891906114cb565b60405180910390a3505050565b61122f82826107ae565b6112725780826040517fe2517d3f0000000000000000000000000000000000000000000000000000000081526004016112699291906117ce565b60405180910390fd5b5050565b600080fd5b60007fffffffff0000000000000000000000000000000000000000000000000000000082169050919050565b6112b08161127b565b81146112bb57600080fd5b50565b6000813590506112cd816112a7565b92915050565b6000602082840312156112e9576112e8611276565b5b60006112f7848285016112be565b91505092915050565b60008115159050919050565b61131581611300565b82525050565b6000602082019050611330600083018461130c565b92915050565b600081519050919050565b600082825260208201905092915050565b60005b83811015611370578082015181840152602081019050611355565b60008484015250505050565b6000601f19601f8301169050919050565b600061139882611336565b6113a28185611341565b93506113b2818560208601611352565b6113bb8161137c565b840191505092915050565b600060208201905081810360008301526113e0818461138d565b905092915050565b600073ffffffffffffffffffffffffffffffffffffffff82169050919050565b6000611413826113e8565b9050919050565b61142381611408565b811461142e57600080fd5b50565b6000813590506114408161141a565b92915050565b6000819050919050565b61145981611446565b811461146457600080fd5b50565b60008135905061147681611450565b92915050565b6000806040838503121561149357611492611276565b5b60006114a185828601611431565b92505060206114b285828601611467565b9150509250929050565b6114c581611446565b82525050565b60006020820190506114e060008301846114bc565b92915050565b6000806000606084860312156114ff576114fe611276565b5b600061150d86828701611431565b935050602061151e86828701611431565b925050604061152f86828701611467565b9150509250925092565b6000819050919050565b61154c81611539565b811461155757600080fd5b50565b60008135905061156981611543565b92915050565b60006020828403121561158557611584611276565b5b60006115938482850161155a565b91505092915050565b6115a581611539565b82525050565b60006020820190506115c0600083018461159c565b92915050565b600080604083850312156115dd576115dc611276565b5b60006115eb8582860161155a565b92505060206115fc85828601611431565b9150509250929050565b600060ff82169050919050565b61161c81611606565b82525050565b60006020820190506116376000830184611613565b92915050565b60006020828403121561165357611652611276565b5b600061166184828501611431565b91505092915050565b61167381611408565b82525050565b600060208201905061168e600083018461166a565b92915050565b600080604083850312156116ab576116aa611276565b5b60006116b985828601611431565b92505060206116ca85828601611431565b9150509250929050565b7f4e487b7100000000000000000000000000000000000000000000000000000000600052602260045260246000fd5b6000600282049050600182168061171b57607f821691505b60208210810361172e5761172d6116d4565b5b50919050565b6000606082019050611749600083018661166a565b61175660208301856114bc565b61176360408301846114bc565b949350505050565b7f4e487b7100000000000000000000000000000000000000000000000000000000600052601160045260246000fd5b60006117a582611446565b91506117b083611446565b92508282019050808211156117c8576117c761176b565b5b92915050565b60006040820190506117e3600083018561166a565b6117f0602083018461159c565b939250505056fea26469706673582212206d0c56b7e87b11f8762a6efc4d951e06dd40de2939b66b2249f600c756b2d1f764736f6c63430008140033",
  "linkReferences": {},
  "deployedLinkReferences": {}
}