{
  "_format": "hh-sol-artifact-1",
  "contractName": "Odz1155",
  "sourceName": "contracts/Odz1155.sol",
  "abi": [
    {
      "inputs": [],
      "stateMutability": "nonpayable",
      "type": "constructor"
    },
    {
      "inputs": [
        {
          "internalType": "address",
          "name": "sender",
          "type": "address"
        },
        {
          "internalType": "uint256",
          "name": "balance",
          "type": "uint256"
        },
        {
          "internalType": "uint256",
          "name": "needed",
          "type": "uint256"
        },
        {
          "internalType": "uint256",
          "name": "tokenId",
          "type": "uint256"
        }
      ],
      "name": "ERC1155InsufficientBalance",
      "type": "error"
    },
    {
      "inputs": [
        {
          "internalType": "address",
          "name": "approver",
          "type": "address"
        }
      ],
      "name": "ERC1155InvalidApprover",
      "type": "error"
    },
    {
      "inputs": [
        {
          "internalType": "uint256",
          "name": "idsLength",
          "type": "uint256"
        },
        {
          "internalType": "uint256",
          "name": "valuesLength",
          "type": "uint256"
        }
      ],
      "name": "ERC1155InvalidArrayLength",
      "type": "error"
    },
    {
      "inputs": [
        {
          "internalType": "address",
          "name": "operator",
          "type": "address"
        }
      ],
      "name": "ERC1155InvalidOperator",
      "type": "error"
    },
    {
      "inputs": [
        {
          "internalType": "address",
          "name": "receiver",
          "type": "address"
        }
      ],
      "name": "ERC1155InvalidReceiver",
      "type": "error"
    },
    {
      "inputs": [
        {
          "internalType": "address",
          "name": "sender",
          "type": "address"
        }
      ],
      "name": "ERC1155InvalidSender",
      "type": "error"
    },
    {
      "inputs": [
        {
          "internalType": "address",
          "name": "operator",
          "type": "address"
        },
        {
          "internalType": "address",
          "name": "owner",
          "type": "address"
        }
      ],
      "name": "ERC1155MissingApprovalForAll",
      "type": "error"
    },
    {
      "inputs": [
        {
          "internalType": "address",
          "name": "owner",
          "type": "address"
        }
      ],
      "name": "OwnableInvalidOwner",
      "type": "error"
    },
    {
      "inputs": [
        {
          "internalType": "address",
          "name": "account",
          "type": "address"
        }
      ],
      "name": "OwnableUnauthorizedAccount",
      "type": "error"
    },
    {
      "anonymous": false,
      "inputs": [
        {
          "indexed": true,
          "internalType": "address",
          "name": "account",
          "type": "address"
        },
        {
          "indexed": true,
          "internalType": "address",
          "name": "operator",
          "type": "address"
        },
        {
          "indexed": false,
          "internalType": "bool",
          "name": "approved",
          "type": "bool"
        }
      ],
      "name": "ApprovalForAll",
      "type": "event"
    },
    {
      "anonymous": false,
      "inputs": [
        {
          "indexed": false,
          "internalType": "address",
          "name": "attester",
          "type": "address"
        },
        {
          "indexed": false,
          "internalType": "uint256",
          "name": "eventId",
          "type": "uint256"
        },
        {
          "indexed": false,
          "internalType": "uint256",
          "name": "questionId",
          "type": "uint256"
        },
        {
          "indexed": false,
          "internalType": "uint256",
          "name": "choiceId",
          "type": "uint256"
        }
      ],
      "name": "AttestationReceived",
      "type": "event"
    },
    {
      "anonymous": false,
      "inputs": [
        {
          "indexed": true,
          "internalType": "address",
          "name": "previousOwner",
          "type": "address"
        },
        {
          "indexed": true,
          "internalType": "address",
          "name": "newOwner",
          "type": "address"
        }
      ],
      "name": "OwnershipTransferred",
      "type": "event"
    },
    {
      "anonymous": false,
      "inputs": [
        {
          "indexed": true,
          "internalType": "address",
          "name": "operator",
          "type": "address"
        },
        {
          "indexed": true,
          "internalType": "address",
          "name": "from",
          "type": "address"
        },
        {
          "indexed": true,
          "internalType": "address",
          "name": "to",
          "type": "address"
        },
        {
          "indexed": false,
          "internalType": "uint256[]",
          "name": "ids",
          "type": "uint256[]"
        },
        {
          "indexed": false,
          "internalType": "uint256[]",
          "name": "values",
          "type": "uint256[]"
        }
      ],
      "name": "TransferBatch",
      "type": "event"
    },
    {
      "anonymous": false,
      "inputs": [
        {
          "indexed": true,
          "internalType": "address",
          "name": "operator",
          "type": "address"
        },
        {
          "indexed": true,
          "internalType": "address",
          "name": "from",
          "type": "address"
        },
        {
          "indexed": true,
          "internalType": "address",
          "name": "to",
          "type": "address"
        },
        {
          "indexed": false,
          "internalType": "uint256",
          "name": "id",
          "type": "uint256"
        },
        {
          "indexed": false,
          "internalType": "uint256",
          "name": "value",
          "type": "uint256"
        }
      ],
      "name": "TransferSingle",
      "type": "event"
    },
    {
      "anonymous": false,
      "inputs": [
        {
          "indexed": false,
          "internalType": "string",
          "name": "value",
          "type": "string"
        },
        {
          "indexed": true,
          "internalType": "uint256",
          "name": "id",
          "type": "uint256"
        }
      ],
      "name": "URI",
      "type": "event"
    },
    {
      "inputs": [],
      "name": "BET_AMOUNT",
      "outputs": [
        {
          "internalType": "uint256",
          "name": "",
          "type": "uint256"
        }
      ],
      "stateMutability": "view",
      "type": "function"
    },
    {
      "inputs": [],
      "name": "CREATOR_FEE",
      "outputs": [
        {
          "internalType": "uint256",
          "name": "",
          "type": "uint256"
        }
      ],
      "stateMutability": "view",
      "type": "function"
    },
    {
      "inputs": [],
      "name": "JOIN_REWARD",
      "outputs": [
        {
          "internalType": "uint256",
          "name": "",
          "type": "uint256"
        }
      ],
      "stateMutability": "view",
      "type": "function"
    },
    {
      "inputs": [],
      "name": "ODDS_PRECISION",
      "outputs": [
        {
          "internalType": "uint256",
          "name": "",
          "type": "uint256"
        }
      ],
      "stateMutability": "view",
      "type": "function"
    },
    {
      "inputs": [],
      "name": "PROPOSE_COST",
      "outputs": [
        {
          "internalType": "uint256",
          "name": "",
          "type": "uint256"
        }
      ],
      "stateMutability": "view",
      "type": "function"
    },
    {
      "inputs": [],
      "name": "QUORUM_PERCENTAGE",
      "outputs": [
        {
          "internalType": "uint256",
          "name": "",
          "type": "uint256"
        }
      ],
      "stateMutability": "view",
      "type": "function"
    },
    {
      "inputs": [],
      "name": "STAKE_AMOUNT",
      "outputs": [
        {
          "internalType": "uint256",
          "name": "",
          "type": "uint256"
        }
      ],
      "stateMutability": "view",
      "type": "function"
    },
    {
      "inputs": [],
      "name": "_eventIds",
      "outputs": [
        {
          "internalType": "uint256",
          "name": "",
          "type": "uint256"
        }
      ],
      "stateMutability": "view",
      "type": "function"
    },
    {
      "inputs": [],
      "name": "_odzCoin",
      "outputs": [
        {
          "internalType": "contract IOdz20",
          "name": "",
          "type": "address"
        }
      ],
      "stateMutability": "view",
      "type": "function"
    },
    {
      "inputs": [
        {
          "internalType": "address",
          "name": "account",
          "type": "address"
        },
        {
          "internalType": "uint256",
          "name": "id",
          "type": "uint256"
        }
      ],
      "name": "balanceOf",
      "outputs": [
        {
          "internalType": "uint256",
          "name": "",
          "type": "uint256"
        }
      ],
      "stateMutability": "view",
      "type": "function"
    },
    {
      "inputs": [
        {
          "internalType": "address[]",
          "name": "accounts",
          "type": "address[]"
        },
        {
          "internalType": "uint256[]",
          "name": "ids",
          "type": "uint256[]"
        }
      ],
      "name": "balanceOfBatch",
      "outputs": [
        {
          "internalType": "uint256[]",
          "name": "",
          "type": "uint256[]"
        }
      ],
      "stateMutability": "view",
      "type": "function"
    },
    {
      "inputs": [
        {
          "internalType": "address",
          "name": "account",
          "type": "address"
        },
        {
          "internalType": "uint256",
          "name": "id",
          "type": "uint256"
        },
        {
          "internalType": "uint256",
          "name": "value",
          "type": "uint256"
        }
      ],
      "name": "burn",
      "outputs": [],
      "stateMutability": "nonpayable",
      "type": "function"
    },
    {
      "inputs": [
        {
          "internalType": "address",
          "name": "account",
          "type": "address"
        },
        {
          "internalType": "uint256[]",
          "name": "ids",
          "type": "uint256[]"
        },
        {
          "internalType": "uint256[]",
          "name": "values",
          "type": "uint256[]"
        }
      ],
      "name": "burnBatch",
      "outputs": [],
      "stateMutability": "nonpayable",
      "type": "function"
    },
    {
      "inputs": [],
      "name": "claimAllOdz",
      "outputs": [],
      "stateMutability": "nonpayable",
      "type": "function"
    },
    {
      "inputs": [
        {
          "internalType": "uint256",
          "name": "_eventId",
          "type": "uint256"
        }
      ],
      "name": "concludeEvent",
      "outputs": [],
      "stateMutability": "nonpayable",
      "type": "function"
    },
    {
      "inputs": [
        {
          "internalType": "uint256",
          "name": "_startTime",
          "type": "uint256"
        },
        {
          "internalType": "uint256",
          "name": "_endTime",
          "type": "uint256"
        }
      ],
      "name": "createEvent",
      "outputs": [],
      "stateMutability": "nonpayable",
      "type": "function"
    },
    {
      "inputs": [
        {
          "internalType": "address",
          "name": "attester",
          "type": "address"
        },
        {
          "internalType": "uint64",
          "name": "schemaId",
          "type": "uint64"
        },
        {
          "internalType": "uint64",
          "name": "attestationId",
          "type": "uint64"
        },
        {
          "internalType": "bytes",
          "name": "extraData",
          "type": "bytes"
        }
      ],
      "name": "didReceiveAttestation",
      "outputs": [],
      "stateMutability": "payable",
      "type": "function"
    },
    {
      "inputs": [
        {
          "internalType": "address",
          "name": "attester",
          "type": "address"
        },
        {
          "internalType": "uint64",
          "name": "schemaId",
          "type": "uint64"
        },
        {
          "internalType": "uint64",
          "name": "attestationId",
          "type": "uint64"
        },
        {
          "internalType": "contract IERC20",
          "name": "resolverFeeERC20Token",
          "type": "address"
        },
        {
          "internalType": "uint256",
          "name": "resolverFeeERC20Amount",
          "type": "uint256"
        },
        {
          "internalType": "bytes",
          "name": "extraData",
          "type": "bytes"
        }
      ],
      "name": "didReceiveAttestation",
      "outputs": [],
      "stateMutability": "nonpayable",
      "type": "function"
    },
    {
      "inputs": [
        {
          "internalType": "address",
          "name": "attester",
          "type": "address"
        },
        {
          "internalType": "uint64",
          "name": "schemaId",
          "type": "uint64"
        },
        {
          "internalType": "uint64",
          "name": "attestationId",
          "type": "uint64"
        },
        {
          "internalType": "bytes",
          "name": "extraData",
          "type": "bytes"
        }
      ],
      "name": "didReceiveRevocation",
      "outputs": [],
      "stateMutability": "payable",
      "type": "function"
    },
    {
      "inputs": [
        {
          "internalType": "address",
          "name": "attester",
          "type": "address"
        },
        {
          "internalType": "uint64",
          "name": "schemaId",
          "type": "uint64"
        },
        {
          "internalType": "uint64",
          "name": "attestationId",
          "type": "uint64"
        },
        {
          "internalType": "contract IERC20",
          "name": "resolverFeeERC20Token",
          "type": "address"
        },
        {
          "internalType": "uint256",
          "name": "resolverFeeERC20Amount",
          "type": "uint256"
        },
        {
          "internalType": "bytes",
          "name": "extraData",
          "type": "bytes"
        }
      ],
      "name": "didReceiveRevocation",
      "outputs": [],
      "stateMutability": "nonpayable",
      "type": "function"
    },
    {
      "inputs": [
        {
          "internalType": "uint256",
          "name": "",
          "type": "uint256"
        }
      ],
      "name": "eventSchemaIds",
      "outputs": [
        {
          "internalType": "uint64",
          "name": "",
          "type": "uint64"
        }
      ],
      "stateMutability": "view",
      "type": "function"
    },
    {
      "inputs": [
        {
          "internalType": "uint256",
          "name": "",
          "type": "uint256"
        }
      ],
      "name": "events",
      "outputs": [
        {
          "internalType": "uint256",
          "name": "startTime",
          "type": "uint256"
        },
        {
          "internalType": "uint256",
          "name": "endTime",
          "type": "uint256"
        },
        {
          "internalType": "uint256",
          "name": "participantCount",
          "type": "uint256"
        },
        {
          "internalType": "uint256",
          "name": "questionCount",
          "type": "uint256"
        },
        {
          "internalType": "address",
          "name": "organizer",
          "type": "address"
        },
        {
          "internalType": "bool",
          "name": "concluded",
          "type": "bool"
        }
      ],
      "stateMutability": "view",
      "type": "function"
    },
    {
      "inputs": [
        {
          "internalType": "uint256",
          "name": "_eventId",
          "type": "uint256"
        }
      ],
      "name": "getEventDetails",
      "outputs": [
        {
          "components": [
            {
              "internalType": "uint256",
              "name": "eventId",
              "type": "uint256"
            },
            {
              "internalType": "uint256",
              "name": "startTime",
              "type": "uint256"
            },
            {
              "internalType": "uint256",
              "name": "endTime",
              "type": "uint256"
            },
            {
              "internalType": "address",
              "name": "organizer",
              "type": "address"
            },
            {
              "components": [
                {
                  "internalType": "uint256",
                  "name": "questionId",
                  "type": "uint256"
                },
                {
                  "internalType": "uint256",
                  "name": "choiceCount",
                  "type": "uint256"
                },
                {
                  "internalType": "uint256",
                  "name": "totalBets",
                  "type": "uint256"
                },
                {
                  "internalType": "uint256",
                  "name": "attestationCount",
                  "type": "uint256"
                },
                {
                  "internalType": "uint256",
                  "name": "result",
                  "type": "uint256"
                },
                {
                  "internalType": "bool",
                  "name": "hasQuorum",
                  "type": "bool"
                },
                {
                  "components": [
                    {
                      "internalType": "uint256",
                      "name": "choiceId",
                      "type": "uint256"
                    },
                    {
                      "internalType": "uint256",
                      "name": "totalBets",
                      "type": "uint256"
                    }
                  ],
                  "internalType": "struct Odz1155.ChoiceInfo[]",
                  "name": "choices",
                  "type": "tuple[]"
                }
              ],
              "internalType": "struct Odz1155.QuestionInfo[]",
              "name": "questions",
              "type": "tuple[]"
            }
          ],
          "internalType": "struct Odz1155.ActiveEventInfo",
          "name": "",
          "type": "tuple"
        }
      ],
      "stateMutability": "view",
      "type": "function"
    },
    {
      "inputs": [],
      "name": "getEvents",
      "outputs": [
        {
          "components": [
            {
              "internalType": "uint256",
              "name": "eventId",
              "type": "uint256"
            },
            {
              "internalType": "uint256",
              "name": "startTime",
              "type": "uint256"
            },
            {
              "internalType": "uint256",
              "name": "endTime",
              "type": "uint256"
            },
            {
              "internalType": "address",
              "name": "organizer",
              "type": "address"
            },
            {
              "components": [
                {
                  "internalType": "uint256",
                  "name": "questionId",
                  "type": "uint256"
                },
                {
                  "internalType": "uint256",
                  "name": "choiceCount",
                  "type": "uint256"
                },
                {
                  "internalType": "uint256",
                  "name": "totalBets",
                  "type": "uint256"
                },
                {
                  "internalType": "uint256",
                  "name": "attestationCount",
                  "type": "uint256"
                },
                {
                  "internalType": "uint256",
                  "name": "result",
                  "type": "uint256"
                },
                {
                  "internalType": "bool",
                  "name": "hasQuorum",
                  "type": "bool"
                },
                {
                  "components": [
                    {
                      "internalType": "uint256",
                      "name": "choiceId",
                      "type": "uint256"
                    },
                    {
                      "internalType": "uint256",
                      "name": "totalBets",
                      "type": "uint256"
                    }
                  ],
                  "internalType": "struct Odz1155.ChoiceInfo[]",
                  "name": "choices",
                  "type": "tuple[]"
                }
              ],
              "internalType": "struct Odz1155.QuestionInfo[]",
              "name": "questions",
              "type": "tuple[]"
            }
          ],
          "internalType": "struct Odz1155.ActiveEventInfo[]",
          "name": "",
          "type": "tuple[]"
        }
      ],
      "stateMutability": "view",
      "type": "function"
    },
    {
      "inputs": [
        {
          "internalType": "uint256",
          "name": "_eventId",
          "type": "uint256"
        },
        {
          "internalType": "uint256",
          "name": "_questionId",
          "type": "uint256"
        },
        {
          "internalType": "uint256",
          "name": "_choiceId",
          "type": "uint256"
        }
      ],
      "name": "getOdds",
      "outputs": [
        {
          "internalType": "uint256",
          "name": "",
          "type": "uint256"
        }
      ],
      "stateMutability": "view",
      "type": "function"
    },
    {
      "inputs": [
        {
          "internalType": "uint256",
          "name": "_eventId",
          "type": "uint256"
        },
        {
          "internalType": "uint256",
          "name": "_questionId",
          "type": "uint256"
        },
        {
          "internalType": "uint256",
          "name": "_choiceId",
          "type": "uint256"
        }
      ],
      "name": "getPotentialPayout",
      "outputs": [
        {
          "internalType": "uint256",
          "name": "",
          "type": "uint256"
        }
      ],
      "stateMutability": "view",
      "type": "function"
    },
    {
      "inputs": [
        {
          "internalType": "address",
          "name": "account",
          "type": "address"
        },
        {
          "internalType": "address",
          "name": "operator",
          "type": "address"
        }
      ],
      "name": "isApprovedForAll",
      "outputs": [
        {
          "internalType": "bool",
          "name": "",
          "type": "bool"
        }
      ],
      "stateMutability": "view",
      "type": "function"
    },
    {
      "inputs": [
        {
          "internalType": "uint256",
          "name": "_eventId",
          "type": "uint256"
        }
      ],
      "name": "joinEvent",
      "outputs": [],
      "stateMutability": "nonpayable",
      "type": "function"
    },
    {
      "inputs": [],
      "name": "owner",
      "outputs": [
        {
          "internalType": "address",
          "name": "",
          "type": "address"
        }
      ],
      "stateMutability": "view",
      "type": "function"
    },
    {
      "inputs": [
        {
          "internalType": "uint256",
          "name": "_eventId",
          "type": "uint256"
        },
        {
          "internalType": "uint256",
          "name": "_questionId",
          "type": "uint256"
        },
        {
          "internalType": "uint256",
          "name": "_choiceId",
          "type": "uint256"
        }
      ],
      "name": "placeBet",
      "outputs": [],
      "stateMutability": "nonpayable",
      "type": "function"
    },
    {
      "inputs": [
        {
          "internalType": "uint256",
          "name": "_eventId",
          "type": "uint256"
        },
        {
          "internalType": "uint256",
          "name": "_choiceCount",
          "type": "uint256"
        }
      ],
      "name": "proposeQuestion",
      "outputs": [],
      "stateMutability": "nonpayable",
      "type": "function"
    },
    {
      "inputs": [],
      "name": "renounceOwnership",
      "outputs": [],
      "stateMutability": "nonpayable",
      "type": "function"
    },
    {
      "inputs": [
        {
          "internalType": "address",
          "name": "from",
          "type": "address"
        },
        {
          "internalType": "address",
          "name": "to",
          "type": "address"
        },
        {
          "internalType": "uint256[]",
          "name": "ids",
          "type": "uint256[]"
        },
        {
          "internalType": "uint256[]",
          "name": "amounts",
          "type": "uint256[]"
        },
        {
          "internalType": "bytes",
          "name": "data",
          "type": "bytes"
        }
      ],
      "name": "safeBatchTransferFrom",
      "outputs": [],
      "stateMutability": "nonpayable",
      "type": "function"
    },
    {
      "inputs": [
        {
          "internalType": "address",
          "name": "from",
          "type": "address"
        },
        {
          "internalType": "address",
          "name": "to",
          "type": "address"
        },
        {
          "internalType": "uint256",
          "name": "id",
          "type": "uint256"
        },
        {
          "internalType": "uint256",
          "name": "amount",
          "type": "uint256"
        },
        {
          "internalType": "bytes",
          "name": "data",
          "type": "bytes"
        }
      ],
      "name": "safeTransferFrom",
      "outputs": [],
      "stateMutability": "nonpayable",
      "type": "function"
    },
    {
      "inputs": [
        {
          "internalType": "address",
          "name": "operator",
          "type": "address"
        },
        {
          "internalType": "bool",
          "name": "approved",
          "type": "bool"
        }
      ],
      "name": "setApprovalForAll",
      "outputs": [],
      "stateMutability": "nonpayable",
      "type": "function"
    },
    {
      "inputs": [
        {
          "internalType": "uint256",
          "name": "_eventId",
          "type": "uint256"
        },
        {
          "internalType": "uint64",
          "name": "_schemaId",
          "type": "uint64"
        }
      ],
      "name": "setEventSchemaId",
      "outputs": [],
      "stateMutability": "nonpayable",
      "type": "function"
    },
    {
      "inputs": [
        {
          "internalType": "contract IOdz20",
          "name": "odzCoin",
          "type": "address"
        }
      ],
      "name": "setOdzCoin",
      "outputs": [],
      "stateMutability": "nonpayable",
      "type": "function"
    },
    {
      "inputs": [
        {
          "internalType": "bytes4",
          "name": "interfaceId",
          "type": "bytes4"
        }
      ],
      "name": "supportsInterface",
      "outputs": [
        {
          "internalType": "bool",
          "name": "",
          "type": "bool"
        }
      ],
      "stateMutability": "view",
      "type": "function"
    },
    {
      "inputs": [
        {
          "internalType": "address",
          "name": "newOwner",
          "type": "address"
        }
      ],
      "name": "transferOwnership",
      "outputs": [],
      "stateMutability": "nonpayable",
      "type": "function"
    },
    {
      "inputs": [
        {
          "internalType": "address",
          "name": "",
          "type": "address"
        }
      ],
      "name": "unclaimedOdz",
      "outputs": [
        {
          "internalType": "uint256",
          "name": "",
          "type": "uint256"
        }
      ],
      "stateMutability": "view",
      "type": "function"
    },
    {
      "inputs": [
        {
          "internalType": "uint256",
          "name": "",
          "type": "uint256"
        }
      ],
      "name": "uri",
      "outputs": [
        {
          "internalType": "string",
          "name": "",
          "type": "string"
        }
      ],
      "stateMutability": "view",
      "type": "function"
    },
    {
      "inputs": [
        {
          "internalType": "address",
          "name": "",
          "type": "address"
        },
        {
          "internalType": "uint256",
          "name": "",
          "type": "uint256"
        }
      ],
      "name": "userStakes",
      "outputs": [
        {
          "internalType": "uint256",
          "name": "",
          "type": "uint256"
        }
      ],
      "stateMutability": "view",
      "type": "function"
    }
  ],
  "bytecode": "0x60806040523480156200001157600080fd5b503360405180606001604052806027815260200162006293602791396200003e81620000cc60201b60201c565b50600073ffffffffffffffffffffffffffffffffffffffff168173ffffffffffffffffffffffffffffffffffffffff1603620000b45760006040517f1e4fbdf7000000000000000000000000000000000000000000000000000000008152600401620000ab9190620001ec565b60405180910390fd5b620000c581620000e160201b60201c565b506200056a565b8060029081620000dd919062000483565b5050565b6000600360009054906101000a900473ffffffffffffffffffffffffffffffffffffffff16905081600360006101000a81548173ffffffffffffffffffffffffffffffffffffffff021916908373ffffffffffffffffffffffffffffffffffffffff1602179055508173ffffffffffffffffffffffffffffffffffffffff168173ffffffffffffffffffffffffffffffffffffffff167f8be0079c531659141344cd1fd0a4f28419497f9722a3daafe3b4186f6b6457e060405160405180910390a35050565b600073ffffffffffffffffffffffffffffffffffffffff82169050919050565b6000620001d482620001a7565b9050919050565b620001e681620001c7565b82525050565b6000602082019050620002036000830184620001db565b92915050565b600081519050919050565b7f4e487b7100000000000000000000000000000000000000000000000000000000600052604160045260246000fd5b7f4e487b7100000000000000000000000000000000000000000000000000000000600052602260045260246000fd5b600060028204905060018216806200028b57607f821691505b602082108103620002a157620002a062000243565b5b50919050565b60008190508160005260206000209050919050565b60006020601f8301049050919050565b600082821b905092915050565b6000600883026200030b7fffffffffffffffffffffffffffffffffffffffffffffffffffffffffffffffff82620002cc565b620003178683620002cc565b95508019841693508086168417925050509392505050565b6000819050919050565b6000819050919050565b6000620003646200035e62000358846200032f565b62000339565b6200032f565b9050919050565b6000819050919050565b620003808362000343565b620003986200038f826200036b565b848454620002d9565b825550505050565b600090565b620003af620003a0565b620003bc81848462000375565b505050565b5b81811015620003e457620003d8600082620003a5565b600181019050620003c2565b5050565b601f8211156200043357620003fd81620002a7565b6200040884620002bc565b8101602085101562000418578190505b620004306200042785620002bc565b830182620003c1565b50505b505050565b600082821c905092915050565b6000620004586000198460080262000438565b1980831691505092915050565b600062000473838362000445565b9150826002028217905092915050565b6200048e8262000209565b67ffffffffffffffff811115620004aa57620004a962000214565b5b620004b6825462000272565b620004c3828285620003e8565b600060209050601f831160018114620004fb5760008415620004e6578287015190505b620004f2858262000465565b86555062000562565b601f1984166200050b86620002a7565b60005b8281101562000535578489015182556001820191506020850194506020810190506200050e565b8683101562000555578489015162000551601f89168262000445565b8355505b6001600288020188555050505b505050505050565b615d19806200057a6000396000f3fe6080604052600436106102505760003560e01c806377a08e4011610139578063d48cb2e6116100b6578063ec38d5a01161007a578063ec38d5a0146108ce578063ee8a7c151461090b578063f242432a14610936578063f2fde38b1461095f578063f5298aca14610988578063faf5625f146109b157610250565b8063d48cb2e6146107fa578063e33361f414610823578063e71c96971461083f578063e830b5c714610868578063e985e9c51461089157610250565b8063a22cb465116100fd578063a22cb465146106ef578063a24fe58f14610718578063a2e8eb2c14610743578063b5d5b5fa14610780578063cbae406c146107bd57610250565b806377a08e401461061e578063790c01251461063557806387fba35e1461065e5780638da5cb5b146106875780639486cc49146106b257610250565b80633398b4ed116101d25780634e1273f4116101965780634e1273f4146105245780634fa43d8b146105615780636b20c4541461058a5780636bc98ba3146105b3578063709f2410146105de578063715018a61461060757610250565b80633398b4ed1461046057806338d361e21461047c5780633f9326af146104a5578063404aa8f9146104d05780634466507a146104fb57610250565b80630eca8192116102195780630eca81921461038b578063117d0bb2146103b657806316cb7b5d146103e15780631a7dfa9f1461040c5780632eb2c2d61461043757610250565b8062fdd58e1461025557806301ffc9a714610292578063033945c3146102cf5780630b7914301461030c5780630e89341c1461034e575b600080fd5b34801561026157600080fd5b5061027c60048036038101906102779190613d47565b6109dc565b6040516102899190613d96565b60405180910390f35b34801561029e57600080fd5b506102b960048036038101906102b49190613e09565b610a36565b6040516102c69190613e51565b60405180910390f35b3480156102db57600080fd5b506102f660048036038101906102f19190613e6c565b610b18565b6040516103039190613d96565b60405180910390f35b34801561031857600080fd5b50610333600480360381019061032e9190613ebf565b610c00565b60405161034596959493929190613efb565b60405180910390f35b34801561035a57600080fd5b5061037560048036038101906103709190613ebf565b610c69565b6040516103829190613fec565b60405180910390f35b34801561039757600080fd5b506103a0610cfd565b6040516103ad9190613d96565b60405180910390f35b3480156103c257600080fd5b506103cb610d02565b6040516103d8919061406d565b60405180910390f35b3480156103ed57600080fd5b506103f6610d28565b6040516104039190613d96565b60405180910390f35b34801561041857600080fd5b50610421610d2e565b60405161042e9190613d96565b60405180910390f35b34801561044357600080fd5b5061045e60048036038101906104599190614285565b610d33565b005b61047a600480360381019061047591906143ef565b610e18565b005b34801561048857600080fd5b506104a3600480360381019061049e9190613ebf565b61119f565b005b3480156104b157600080fd5b506104ba611484565b6040516104c79190613d96565b60405180910390f35b3480156104dc57600080fd5b506104e5611489565b6040516104f29190614818565b60405180910390f35b34801561050757600080fd5b50610522600480360381019061051d9190614878565b61154d565b005b34801561053057600080fd5b5061054b600480360381019061054691906149ea565b611588565b6040516105589190614b11565b60405180910390f35b34801561056d57600080fd5b5061058860048036038101906105839190613ebf565b611691565b005b34801561059657600080fd5b506105b160048036038101906105ac9190614b33565b611ade565b005b3480156105bf57600080fd5b506105c8611b8a565b6040516105d59190613d96565b60405180910390f35b3480156105ea57600080fd5b5061060560048036038101906106009190614bbe565b611b96565b005b34801561061357600080fd5b5061061c611bdc565b005b34801561062a57600080fd5b50610633611bf0565b005b34801561064157600080fd5b5061065c60048036038101906106579190614bfe565b611d4e565b005b34801561066a57600080fd5b5061068560048036038101906106809190614bfe565b611f18565b005b34801561069357600080fd5b5061069c6120a6565b6040516106a99190614c3e565b60405180910390f35b3480156106be57600080fd5b506106d960048036038101906106d49190613ebf565b6120d0565b6040516106e69190614c68565b60405180910390f35b3480156106fb57600080fd5b5061071660048036038101906107119190614caf565b6120f7565b005b34801561072457600080fd5b5061072d612173565b60405161073a9190613d96565b60405180910390f35b34801561074f57600080fd5b5061076a60048036038101906107659190614cef565b612178565b6040516107779190613d96565b60405180910390f35b34801561078c57600080fd5b506107a760048036038101906107a29190613d47565b612190565b6040516107b49190613d96565b60405180910390f35b3480156107c957600080fd5b506107e460048036038101906107df9190613e6c565b6121b5565b6040516107f19190613d96565b60405180910390f35b34801561080657600080fd5b50610821600480360381019061081c9190614d5a565b6121ef565b005b61083d600480360381019061083891906143ef565b61233b565b005b34801561084b57600080fd5b5061086660048036038101906108619190613e6c565b612376565b005b34801561087457600080fd5b5061088f600480360381019061088a9190614878565b61267c565b005b34801561089d57600080fd5b506108b860048036038101906108b39190614d87565b6126b7565b6040516108c59190613e51565b60405180910390f35b3480156108da57600080fd5b506108f560048036038101906108f09190613ebf565b61274b565b6040516109029190614e3d565b60405180910390f35b34801561091757600080fd5b506109206129a8565b60405161092d9190613d96565b60405180910390f35b34801561094257600080fd5b5061095d60048036038101906109589190614e5f565b6129ad565b005b34801561096b57600080fd5b5061098660048036038101906109819190614cef565b612a44565b005b34801561099457600080fd5b506109af60048036038101906109aa9190614ef6565b612aca565b005b3480156109bd57600080fd5b506109c6612b76565b6040516109d39190613d96565b60405180910390f35b600080600083815260200190815260200160002060008473ffffffffffffffffffffffffffffffffffffffff1673ffffffffffffffffffffffffffffffffffffffff16815260200190815260200160002054905092915050565b60007fd9b67a26000000000000000000000000000000000000000000000000000000007bffffffffffffffffffffffffffffffffffffffffffffffffffffffff1916827bffffffffffffffffffffffffffffffffffffffffffffffffffffffff19161480610b0157507f0e89341c000000000000000000000000000000000000000000000000000000007bffffffffffffffffffffffffffffffffffffffffffffffffffffffff1916827bffffffffffffffffffffffffffffffffffffffffffffffffffffffff1916145b80610b115750610b1082612b7b565b5b9050919050565b6000806006600086815260200190815260200160002090506000816005016000868152602001908152602001600020905080600101548410610b8f576040517f08c379a0000000000000000000000000000000000000000000000000000000008152600401610b8690614f95565b60405180910390fd5b6000816002015403610bb957670de0b6b3a7640000600a610bb09190614fe4565b92505050610bf9565b80600001600085815260200190815260200160002060000154670de0b6b3a76400008260020154610bea9190614fe4565b610bf49190615055565b925050505b9392505050565b60066020528060005260406000206000915090508060000154908060010154908060020154908060030154908060040160009054906101000a900473ffffffffffffffffffffffffffffffffffffffff16908060040160149054906101000a900460ff16905086565b606060028054610c78906150b5565b80601f0160208091040260200160405190810160405280929190818152602001828054610ca4906150b5565b8015610cf15780601f10610cc657610100808354040283529160200191610cf1565b820191906000526020600020905b815481529060010190602001808311610cd457829003601f168201915b50505050509050919050565b606481565b600560009054906101000a900473ffffffffffffffffffffffffffffffffffffffff1681565b60045481565b600a81565b60005b8351811015610e035760066000858381518110610d5657610d556150e6565b5b6020026020010151815260200190815260200160002060040160149054906101000a900460ff1680610db7575060066000858381518110610d9a57610d996150e6565b5b602002602001015181526020019081526020016000206001015442115b610df6576040517f08c379a0000000000000000000000000000000000000000000000000000000008152600401610ded90615187565b60405180910390fd5b8080600101915050610d36565b50610e118585858585612be5565b5050505050565b60008060008484810190610e2c9190613e6c565b9250925092508667ffffffffffffffff166008600085815260200190815260200160002060009054906101000a900467ffffffffffffffff1667ffffffffffffffff1614610eaf576040517f08c379a0000000000000000000000000000000000000000000000000000000008152600401610ea6906151f3565b60405180910390fd5b6000600660008581526020019081526020016000209050600081600501600085815260200190815260200160002090508160060160008b73ffffffffffffffffffffffffffffffffffffffff1673ffffffffffffffffffffffffffffffffffffffff16815260200190815260200160002060009054906101000a900460ff16610f6d576040517f08c379a0000000000000000000000000000000000000000000000000000000008152600401610f649061525f565b60405180910390fd5b8060040160008b73ffffffffffffffffffffffffffffffffffffffff1673ffffffffffffffffffffffffffffffffffffffff16815260200190815260200160002060009054906101000a900460ff1615610ffc576040517f08c379a0000000000000000000000000000000000000000000000000000000008152600401610ff3906152cb565b60405180910390fd5b8060080160009054906101000a900460ff161561104e576040517f08c379a000000000000000000000000000000000000000000000000000000000815260040161104590615337565b60405180910390fd5b60018160040160008c73ffffffffffffffffffffffffffffffffffffffff1673ffffffffffffffffffffffffffffffffffffffff16815260200190815260200160002060006101000a81548160ff021916908315150217905550828160050160008c73ffffffffffffffffffffffffffffffffffffffff1673ffffffffffffffffffffffffffffffffffffffff1681526020019081526020016000208190555080600601600081548092919061110390615357565b919050555060338260020154606483600601546111209190614fe4565b61112a9190615055565b106111565760018160080160006101000a81548160ff0219169083151502179055508281600701819055505b7f762666abe3dc01520e7b221de01d77c1ba0593e850abf509ea39a754c14555568a86868660405161118b949392919061539f565b60405180910390a150505050505050505050565b6000600660008381526020019081526020016000209050806000015442101580156111ce575080600101544211155b61120d576040517f08c379a000000000000000000000000000000000000000000000000000000000815260040161120490615430565b60405180910390fd5b8060060160003373ffffffffffffffffffffffffffffffffffffffff1673ffffffffffffffffffffffffffffffffffffffff16815260200190815260200160002060009054906101000a900460ff161561129c576040517f08c379a00000000000000000000000000000000000000000000000000000000081526004016112939061549c565b60405180910390fd5b60018160060160003373ffffffffffffffffffffffffffffffffffffffff1673ffffffffffffffffffffffffffffffffffffffff16815260200190815260200160002060006101000a81548160ff02191690831515021790555080600701339080600181540180825580915050600190039060005260206000200160009091909190916101000a81548173ffffffffffffffffffffffffffffffffffffffff021916908373ffffffffffffffffffffffffffffffffffffffff16021790555080600201600081548092919061137090615357565b91905055506113913383606460405180602001604052806000815250612c8d565b6113d18160040160009054906101000a900473ffffffffffffffffffffffffffffffffffffffff1683600a60405180602001604052806000815250612c8d565b600a6113dd33846109dc565b101561141e576040517f08c379a000000000000000000000000000000000000000000000000000000000815260040161141590615508565b60405180910390fd5b61142a3383600a612d26565b600a600760003373ffffffffffffffffffffffffffffffffffffffff1673ffffffffffffffffffffffffffffffffffffffff1681526020019081526020016000206000848152602001908152602001600020819055505050565b600581565b60606000600454905060008167ffffffffffffffff8111156114ae576114ad61408d565b5b6040519080825280602002602001820160405280156114e757816020015b6114d4613c01565b8152602001906001900390816114cc5790505b509050600080600190505b6004548111611543576115048161274b565b838281518110611517576115166150e6565b5b6020026020010181905250818061152d90615357565b925050808061153b90615357565b9150506114f2565b5081935050505090565b6040517f08c379a000000000000000000000000000000000000000000000000000000000815260040161157f90615574565b60405180910390fd5b606081518351146115d457815183516040517f5b0599910000000000000000000000000000000000000000000000000000000081526004016115cb929190615594565b60405180910390fd5b6000835167ffffffffffffffff8111156115f1576115f061408d565b5b60405190808252806020026020018201604052801561161f5781602001602082028036833780820191505090505b50905060005b84518110156116865761165c6116448287612dcd90919063ffffffff16565b6116578387612de190919063ffffffff16565b6109dc565b82828151811061166f5761166e6150e6565b5b602002602001018181525050806001019050611625565b508091505092915050565b60006006600083815260200190815260200160002090508060040160009054906101000a900473ffffffffffffffffffffffffffffffffffffffff1673ffffffffffffffffffffffffffffffffffffffff163373ffffffffffffffffffffffffffffffffffffffff161461173a576040517f08c379a000000000000000000000000000000000000000000000000000000000815260040161173190615609565b60405180910390fd5b80600101544211611780576040517f08c379a000000000000000000000000000000000000000000000000000000000815260040161177790615675565b60405180910390fd5b8060040160149054906101000a900460ff16156117d2576040517f08c379a00000000000000000000000000000000000000000000000000000000081526004016117c9906156e1565b60405180910390fd5b60018160040160146101000a81548160ff02191690831515021790555060005b8160030154811015611ad957600082600501600083815260200190815260200160002090508060080160009054906101000a900460ff1615611acb5760008160070154905060005b8460020154811015611ac857600085600701828154811061185e5761185d6150e6565b5b9060005260206000200160009054906101000a900473ffffffffffffffffffffffffffffffffffffffff169050828460050160008373ffffffffffffffffffffffffffffffffffffffff1673ffffffffffffffffffffffffffffffffffffffff1681526020019081526020016000205403611a6357600084600001600085815260200190815260200160002060010160008373ffffffffffffffffffffffffffffffffffffffff1673ffffffffffffffffffffffffffffffffffffffff168152602001908152602001600020549050600061193a898887610b18565b90506000670de0b6b3a764000082846119539190614fe4565b61195d9190615055565b905080600960008673ffffffffffffffffffffffffffffffffffffffff1673ffffffffffffffffffffffffffffffffffffffff16815260200190815260200160002060008282546119ae9190615701565b92505081905550600760008573ffffffffffffffffffffffffffffffffffffffff1673ffffffffffffffffffffffffffffffffffffffff16815260200190815260200160002060008b815260200190815260200160002054600960008673ffffffffffffffffffffffffffffffffffffffff1673ffffffffffffffffffffffffffffffffffffffff1681526020019081526020016000206000828254611a549190615701565b92505081905550505050611aba565b6000600760008373ffffffffffffffffffffffffffffffffffffffff1673ffffffffffffffffffffffffffffffffffffffff1681526020019081526020016000206000898152602001908152602001600020819055505b50808060010191505061183a565b50505b5080806001019150506117f2565b505050565b611ae6612df5565b73ffffffffffffffffffffffffffffffffffffffff168373ffffffffffffffffffffffffffffffffffffffff1614158015611b2f5750611b2d83611b28612df5565b6126b7565b155b15611b7a57611b3c612df5565b836040517fe237d922000000000000000000000000000000000000000000000000000000008152600401611b71929190615735565b60405180910390fd5b611b85838383612dfd565b505050565b670de0b6b3a764000081565b611b9e612e91565b806008600084815260200190815260200160002060006101000a81548167ffffffffffffffff021916908367ffffffffffffffff1602179055505050565b611be4612e91565b611bee6000612f18565b565b6000600960003373ffffffffffffffffffffffffffffffffffffffff1673ffffffffffffffffffffffffffffffffffffffff16815260200190815260200160002054905060008111611c77576040517f08c379a0000000000000000000000000000000000000000000000000000000008152600401611c6e906157aa565b60405180910390fd5b6000600960003373ffffffffffffffffffffffffffffffffffffffff1673ffffffffffffffffffffffffffffffffffffffff16815260200190815260200160002081905550600560009054906101000a900473ffffffffffffffffffffffffffffffffffffffff1673ffffffffffffffffffffffffffffffffffffffff166340c10f1933836040518363ffffffff1660e01b8152600401611d199291906157ca565b600060405180830381600087803b158015611d3357600080fd5b505af1158015611d47573d6000803e3d6000fd5b5050505050565b808210611d90576040517f08c379a0000000000000000000000000000000000000000000000000000000008152600401611d879061583f565b60405180910390fd5b600160046000828254611da39190615701565b92505081905550600060045490506000600660008381526020019081526020016000209050838160000181905550828160010181905550338160040160006101000a81548173ffffffffffffffffffffffffffffffffffffffff021916908373ffffffffffffffffffffffffffffffffffffffff16021790555060018160060160003373ffffffffffffffffffffffffffffffffffffffff1673ffffffffffffffffffffffffffffffffffffffff16815260200190815260200160002060006101000a81548160ff021916908315150217905550806002016000815480929190611e8c90615357565b919050555080600701339080600181540180825580915050600190039060005260206000200160009091909190916101000a81548173ffffffffffffffffffffffffffffffffffffffff021916908373ffffffffffffffffffffffffffffffffffffffff160217905550611f123383600160405180602001604052806000815250612c8d565b50505050565b60006006600084815260200190815260200160002090508060060160003373ffffffffffffffffffffffffffffffffffffffff1673ffffffffffffffffffffffffffffffffffffffff16815260200190815260200160002060009054906101000a900460ff16611fbd576040517f08c379a0000000000000000000000000000000000000000000000000000000008152600401611fb49061525f565b60405180910390fd5b6002821015612001576040517f08c379a0000000000000000000000000000000000000000000000000000000008152600401611ff8906158ab565b60405180910390fd5b600a61200d33856109dc565b101561204e576040517f08c379a000000000000000000000000000000000000000000000000000000000815260040161204590615917565b60405180910390fd5b61205a3384600a612d26565b6000816003015490506000826005016000838152602001908152602001600020905083816001018190555082600301600081548092919061209a90615357565b91905055505050505050565b6000600360009054906101000a900473ffffffffffffffffffffffffffffffffffffffff16905090565b60086020528060005260406000206000915054906101000a900467ffffffffffffffff1681565b3073ffffffffffffffffffffffffffffffffffffffff168273ffffffffffffffffffffffffffffffffffffffff1614612165576040517f08c379a000000000000000000000000000000000000000000000000000000000815260040161215c90615983565b60405180910390fd5b61216f8282612fde565b5050565b600a81565b60096020528060005260406000206000915090505481565b6007602052816000526040600020602052806000526040600020600091509150505481565b6000806121c3858585610b18565b9050670de0b6b3a76400008160056121db9190614fe4565b6121e59190615055565b9150509392505050565b6121f7612e91565b600073ffffffffffffffffffffffffffffffffffffffff168173ffffffffffffffffffffffffffffffffffffffff1603612266576040517f08c379a000000000000000000000000000000000000000000000000000000000815260040161225d906159ef565b60405180910390fd5b600073ffffffffffffffffffffffffffffffffffffffff16600560009054906101000a900473ffffffffffffffffffffffffffffffffffffffff1673ffffffffffffffffffffffffffffffffffffffff16146122f7576040517f08c379a00000000000000000000000000000000000000000000000000000000081526004016122ee90615a5b565b60405180910390fd5b80600560006101000a81548173ffffffffffffffffffffffffffffffffffffffff021916908373ffffffffffffffffffffffffffffffffffffffff16021790555050565b6040517f08c379a000000000000000000000000000000000000000000000000000000000815260040161236d90615ac7565b60405180910390fd5b6000600660008581526020019081526020016000209050600081600501600085815260200190815260200160002090508160060160003373ffffffffffffffffffffffffffffffffffffffff1673ffffffffffffffffffffffffffffffffffffffff16815260200190815260200160002060009054906101000a900460ff16612434576040517f08c379a000000000000000000000000000000000000000000000000000000000815260040161242b9061525f565b60405180910390fd5b8060030160003373ffffffffffffffffffffffffffffffffffffffff1673ffffffffffffffffffffffffffffffffffffffff16815260200190815260200160002060009054906101000a900460ff16156124c3576040517f08c379a00000000000000000000000000000000000000000000000000000000081526004016124ba90615b33565b60405180910390fd5b60056124cf33876109dc565b1015612510576040517f08c379a000000000000000000000000000000000000000000000000000000000815260040161250790615917565b60405180910390fd5b80600101548310612556576040517f08c379a000000000000000000000000000000000000000000000000000000000815260040161254d90614f95565b60405180910390fd5b61256233866005612d26565b60018160030160003373ffffffffffffffffffffffffffffffffffffffff1673ffffffffffffffffffffffffffffffffffffffff16815260200190815260200160002060006101000a81548160ff021916908315150217905550600581600001600085815260200190815260200160002060000160008282546125e59190615701565b92505081905550600581600001600085815260200190815260200160002060010160003373ffffffffffffffffffffffffffffffffffffffff1673ffffffffffffffffffffffffffffffffffffffff16815260200190815260200160002060008282546126529190615701565b92505081905550600581600201600082825461266e9190615701565b925050819055505050505050565b6040517f08c379a00000000000000000000000000000000000000000000000000000000081526004016126ae90615574565b60405180910390fd5b6000600160008473ffffffffffffffffffffffffffffffffffffffff1673ffffffffffffffffffffffffffffffffffffffff16815260200190815260200160002060008373ffffffffffffffffffffffffffffffffffffffff1673ffffffffffffffffffffffffffffffffffffffff16815260200190815260200160002060009054906101000a900460ff16905092915050565b612753613c01565b60006006600084815260200190815260200160002090506000816003015467ffffffffffffffff81111561278a5761278961408d565b5b6040519080825280602002602001820160405280156127c357816020015b6127b0613c46565b8152602001906001900390816127a85790505b50905060005b826003015481101561293557600083600501600083815260200190815260200160002090506000816001015467ffffffffffffffff81111561280e5761280d61408d565b5b60405190808252806020026020018201604052801561284757816020015b612834613c85565b81526020019060019003908161282c5790505b50905060005b82600101548110156128b157604051806040016040528082815260200184600001600084815260200190815260200160002060000154815250828281518110612899576128986150e6565b5b6020026020010181905250808060010191505061284d565b506040518060e00160405280848152602001836001015481526020018360020154815260200183600601548152602001836007015481526020018360080160009054906101000a900460ff16151581526020018281525084848151811061291b5761291a6150e6565b5b6020026020010181905250505080806001019150506127c9565b506040518060a0016040528085815260200183600001548152602001836001015481526020018360040160009054906101000a900473ffffffffffffffffffffffffffffffffffffffff1673ffffffffffffffffffffffffffffffffffffffff1681526020018281525092505050919050565b603381565b6006600084815260200190815260200160002060040160149054906101000a900460ff16806129f15750600660008481526020019081526020016000206001015442115b612a30576040517f08c379a0000000000000000000000000000000000000000000000000000000008152600401612a2790615187565b60405180910390fd5b612a3d8585858585612ff4565b5050505050565b612a4c612e91565b600073ffffffffffffffffffffffffffffffffffffffff168173ffffffffffffffffffffffffffffffffffffffff1603612abe5760006040517f1e4fbdf7000000000000000000000000000000000000000000000000000000008152600401612ab59190614c3e565b60405180910390fd5b612ac781612f18565b50565b612ad2612df5565b73ffffffffffffffffffffffffffffffffffffffff168373ffffffffffffffffffffffffffffffffffffffff1614158015612b1b5750612b1983612b14612df5565b6126b7565b155b15612b6657612b28612df5565b836040517fe237d922000000000000000000000000000000000000000000000000000000008152600401612b5d929190615735565b60405180910390fd5b612b71838383612d26565b505050565b600a81565b60007f01ffc9a7000000000000000000000000000000000000000000000000000000007bffffffffffffffffffffffffffffffffffffffffffffffffffffffff1916827bffffffffffffffffffffffffffffffffffffffffffffffffffffffff1916149050919050565b6000612bef612df5565b90508073ffffffffffffffffffffffffffffffffffffffff168673ffffffffffffffffffffffffffffffffffffffff1614158015612c345750612c3286826126b7565b155b15612c785780866040517fe237d922000000000000000000000000000000000000000000000000000000008152600401612c6f929190615735565b60405180910390fd5b612c85868686868661309c565b505050505050565b600073ffffffffffffffffffffffffffffffffffffffff168473ffffffffffffffffffffffffffffffffffffffff1603612cff5760006040517f57f447ce000000000000000000000000000000000000000000000000000000008152600401612cf69190614c3e565b60405180910390fd5b600080612d0c8585613194565b91509150612d1e6000878484876131c4565b505050505050565b600073ffffffffffffffffffffffffffffffffffffffff168373ffffffffffffffffffffffffffffffffffffffff1603612d985760006040517f01a83514000000000000000000000000000000000000000000000000000000008152600401612d8f9190614c3e565b60405180910390fd5b600080612da58484613194565b91509150612dc68560008484604051806020016040528060008152506131c4565b5050505050565b600060208202602084010151905092915050565b600060208202602084010151905092915050565b600033905090565b600073ffffffffffffffffffffffffffffffffffffffff168373ffffffffffffffffffffffffffffffffffffffff1603612e6f5760006040517f01a83514000000000000000000000000000000000000000000000000000000008152600401612e669190614c3e565b60405180910390fd5b612e8c8360008484604051806020016040528060008152506131c4565b505050565b612e99612df5565b73ffffffffffffffffffffffffffffffffffffffff16612eb76120a6565b73ffffffffffffffffffffffffffffffffffffffff1614612f1657612eda612df5565b6040517f118cdaa7000000000000000000000000000000000000000000000000000000008152600401612f0d9190614c3e565b60405180910390fd5b565b6000600360009054906101000a900473ffffffffffffffffffffffffffffffffffffffff16905081600360006101000a81548173ffffffffffffffffffffffffffffffffffffffff021916908373ffffffffffffffffffffffffffffffffffffffff1602179055508173ffffffffffffffffffffffffffffffffffffffff168173ffffffffffffffffffffffffffffffffffffffff167f8be0079c531659141344cd1fd0a4f28419497f9722a3daafe3b4186f6b6457e060405160405180910390a35050565b612ff0612fe9612df5565b8383613276565b5050565b6000612ffe612df5565b90508073ffffffffffffffffffffffffffffffffffffffff168673ffffffffffffffffffffffffffffffffffffffff1614158015613043575061304186826126b7565b155b156130875780866040517fe237d92200000000000000000000000000000000000000000000000000000000815260040161307e929190615735565b60405180910390fd5b61309486868686866133e6565b505050505050565b600073ffffffffffffffffffffffffffffffffffffffff168473ffffffffffffffffffffffffffffffffffffffff160361310e5760006040517f57f447ce0000000000000000000000000000000000000000000000000000000081526004016131059190614c3e565b60405180910390fd5b600073ffffffffffffffffffffffffffffffffffffffff168573ffffffffffffffffffffffffffffffffffffffff16036131805760006040517f01a835140000000000000000000000000000000000000000000000000000000081526004016131779190614c3e565b60405180910390fd5b61318d85858585856131c4565b5050505050565b60608060405191506001825283602083015260408201905060018152826020820152604081016040529250929050565b6131d0858585856134f1565b600073ffffffffffffffffffffffffffffffffffffffff168473ffffffffffffffffffffffffffffffffffffffff161461326f57600061320e612df5565b9050600184510361325e57600061322f600086612de190919063ffffffff16565b90506000613247600086612de190919063ffffffff16565b9050613257838989858589613899565b505061326d565b61326c818787878787613a4d565b5b505b5050505050565b600073ffffffffffffffffffffffffffffffffffffffff168273ffffffffffffffffffffffffffffffffffffffff16036132e85760006040517fced3e1000000000000000000000000000000000000000000000000000000000081526004016132df9190614c3e565b60405180910390fd5b80600160008573ffffffffffffffffffffffffffffffffffffffff1673ffffffffffffffffffffffffffffffffffffffff16815260200190815260200160002060008473ffffffffffffffffffffffffffffffffffffffff1673ffffffffffffffffffffffffffffffffffffffff16815260200190815260200160002060006101000a81548160ff0219169083151502179055508173ffffffffffffffffffffffffffffffffffffffff168373ffffffffffffffffffffffffffffffffffffffff167f17307eab39ab6107e8899845ad3d59bd9653f200f220920489ca2b5937696c31836040516133d99190613e51565b60405180910390a3505050565b600073ffffffffffffffffffffffffffffffffffffffff168473ffffffffffffffffffffffffffffffffffffffff16036134585760006040517f57f447ce00000000000000000000000000000000000000000000000000000000815260040161344f9190614c3e565b60405180910390fd5b600073ffffffffffffffffffffffffffffffffffffffff168573ffffffffffffffffffffffffffffffffffffffff16036134ca5760006040517f01a835140000000000000000000000000000000000000000000000000000000081526004016134c19190614c3e565b60405180910390fd5b6000806134d78585613194565b915091506134e887878484876131c4565b50505050505050565b805182511461353b57815181516040517f5b059991000000000000000000000000000000000000000000000000000000008152600401613532929190615594565b60405180910390fd5b6000613545612df5565b905060005b83518110156137545760006135688286612de190919063ffffffff16565b9050600061357f8386612de190919063ffffffff16565b9050600073ffffffffffffffffffffffffffffffffffffffff168873ffffffffffffffffffffffffffffffffffffffff16146136ac57600080600084815260200190815260200160002060008a73ffffffffffffffffffffffffffffffffffffffff1673ffffffffffffffffffffffffffffffffffffffff1681526020019081526020016000205490508181101561365457888183856040517f03dee4c500000000000000000000000000000000000000000000000000000000815260040161364b949392919061539f565b60405180910390fd5b81810360008085815260200190815260200160002060008b73ffffffffffffffffffffffffffffffffffffffff1673ffffffffffffffffffffffffffffffffffffffff16815260200190815260200160002081905550505b600073ffffffffffffffffffffffffffffffffffffffff168773ffffffffffffffffffffffffffffffffffffffff1614613747578060008084815260200190815260200160002060008973ffffffffffffffffffffffffffffffffffffffff1673ffffffffffffffffffffffffffffffffffffffff168152602001908152602001600020600082825461373f9190615701565b925050819055505b505080600101905061354a565b506001835103613813576000613774600085612de190919063ffffffff16565b9050600061378c600085612de190919063ffffffff16565b90508573ffffffffffffffffffffffffffffffffffffffff168773ffffffffffffffffffffffffffffffffffffffff168473ffffffffffffffffffffffffffffffffffffffff167fc3d58168c5ae7397731d063d5bbf3d657854427343f4c083240f7aacaa2d0f628585604051613804929190615594565b60405180910390a45050613892565b8373ffffffffffffffffffffffffffffffffffffffff168573ffffffffffffffffffffffffffffffffffffffff168273ffffffffffffffffffffffffffffffffffffffff167f4a39dc06d4c0dbc64b70af90fd698a233a518aa5d07e595d983b8c0526c8f7fb8686604051613889929190615b53565b60405180910390a45b5050505050565b60008473ffffffffffffffffffffffffffffffffffffffff163b1115613a45578373ffffffffffffffffffffffffffffffffffffffff1663f23a6e6187878686866040518663ffffffff1660e01b81526004016138fa959493929190615bdf565b6020604051808303816000875af192505050801561393657506040513d601f19601f820116820180604052508101906139339190615c4e565b60015b6139ba573d8060008114613966576040519150601f19603f3d011682016040523d82523d6000602084013e61396b565b606091505b5060008151036139b257846040517f57f447ce0000000000000000000000000000000000000000000000000000000081526004016139a99190614c3e565b60405180910390fd5b805181602001fd5b63f23a6e6160e01b7bffffffffffffffffffffffffffffffffffffffffffffffffffffffff1916817bffffffffffffffffffffffffffffffffffffffffffffffffffffffff191614613a4357846040517f57f447ce000000000000000000000000000000000000000000000000000000008152600401613a3a9190614c3e565b60405180910390fd5b505b505050505050565b60008473ffffffffffffffffffffffffffffffffffffffff163b1115613bf9578373ffffffffffffffffffffffffffffffffffffffff1663bc197c8187878686866040518663ffffffff1660e01b8152600401613aae959493929190615c7b565b6020604051808303816000875af1925050508015613aea57506040513d601f19601f82011682018060405250810190613ae79190615c4e565b60015b613b6e573d8060008114613b1a576040519150601f19603f3d011682016040523d82523d6000602084013e613b1f565b606091505b506000815103613b6657846040517f57f447ce000000000000000000000000000000000000000000000000000000008152600401613b5d9190614c3e565b60405180910390fd5b805181602001fd5b63bc197c8160e01b7bffffffffffffffffffffffffffffffffffffffffffffffffffffffff1916817bffffffffffffffffffffffffffffffffffffffffffffffffffffffff191614613bf757846040517f57f447ce000000000000000000000000000000000000000000000000000000008152600401613bee9190614c3e565b60405180910390fd5b505b505050505050565b6040518060a00160405280600081526020016000815260200160008152602001600073ffffffffffffffffffffffffffffffffffffffff168152602001606081525090565b6040518060e001604052806000815260200160008152602001600081526020016000815260200160008152602001600015158152602001606081525090565b604051806040016040528060008152602001600081525090565b6000604051905090565b600080fd5b600080fd5b600073ffffffffffffffffffffffffffffffffffffffff82169050919050565b6000613cde82613cb3565b9050919050565b613cee81613cd3565b8114613cf957600080fd5b50565b600081359050613d0b81613ce5565b92915050565b6000819050919050565b613d2481613d11565b8114613d2f57600080fd5b50565b600081359050613d4181613d1b565b92915050565b60008060408385031215613d5e57613d5d613ca9565b5b6000613d6c85828601613cfc565b9250506020613d7d85828601613d32565b9150509250929050565b613d9081613d11565b82525050565b6000602082019050613dab6000830184613d87565b92915050565b60007fffffffff0000000000000000000000000000000000000000000000000000000082169050919050565b613de681613db1565b8114613df157600080fd5b50565b600081359050613e0381613ddd565b92915050565b600060208284031215613e1f57613e1e613ca9565b5b6000613e2d84828501613df4565b91505092915050565b60008115159050919050565b613e4b81613e36565b82525050565b6000602082019050613e666000830184613e42565b92915050565b600080600060608486031215613e8557613e84613ca9565b5b6000613e9386828701613d32565b9350506020613ea486828701613d32565b9250506040613eb586828701613d32565b9150509250925092565b600060208284031215613ed557613ed4613ca9565b5b6000613ee384828501613d32565b91505092915050565b613ef581613cd3565b82525050565b600060c082019050613f106000830189613d87565b613f1d6020830188613d87565b613f2a6040830187613d87565b613f376060830186613d87565b613f446080830185613eec565b613f5160a0830184613e42565b979650505050505050565b600081519050919050565b600082825260208201905092915050565b60005b83811015613f96578082015181840152602081019050613f7b565b60008484015250505050565b6000601f19601f8301169050919050565b6000613fbe82613f5c565b613fc88185613f67565b9350613fd8818560208601613f78565b613fe181613fa2565b840191505092915050565b600060208201905081810360008301526140068184613fb3565b905092915050565b6000819050919050565b600061403361402e61402984613cb3565b61400e565b613cb3565b9050919050565b600061404582614018565b9050919050565b60006140578261403a565b9050919050565b6140678161404c565b82525050565b6000602082019050614082600083018461405e565b92915050565b600080fd5b7f4e487b7100000000000000000000000000000000000000000000000000000000600052604160045260246000fd5b6140c582613fa2565b810181811067ffffffffffffffff821117156140e4576140e361408d565b5b80604052505050565b60006140f7613c9f565b905061410382826140bc565b919050565b600067ffffffffffffffff8211156141235761412261408d565b5b602082029050602081019050919050565b600080fd5b600061414c61414784614108565b6140ed565b9050808382526020820190506020840283018581111561416f5761416e614134565b5b835b8181101561419857806141848882613d32565b845260208401935050602081019050614171565b5050509392505050565b600082601f8301126141b7576141b6614088565b5b81356141c7848260208601614139565b91505092915050565b600080fd5b600067ffffffffffffffff8211156141f0576141ef61408d565b5b6141f982613fa2565b9050602081019050919050565b82818337600083830152505050565b6000614228614223846141d5565b6140ed565b905082815260208101848484011115614244576142436141d0565b5b61424f848285614206565b509392505050565b600082601f83011261426c5761426b614088565b5b813561427c848260208601614215565b91505092915050565b600080600080600060a086880312156142a1576142a0613ca9565b5b60006142af88828901613cfc565b95505060206142c088828901613cfc565b945050604086013567ffffffffffffffff8111156142e1576142e0613cae565b5b6142ed888289016141a2565b935050606086013567ffffffffffffffff81111561430e5761430d613cae565b5b61431a888289016141a2565b925050608086013567ffffffffffffffff81111561433b5761433a613cae565b5b61434788828901614257565b9150509295509295909350565b600067ffffffffffffffff82169050919050565b61437181614354565b811461437c57600080fd5b50565b60008135905061438e81614368565b92915050565b600080fd5b60008083601f8401126143af576143ae614088565b5b8235905067ffffffffffffffff8111156143cc576143cb614394565b5b6020830191508360018202830111156143e8576143e7614134565b5b9250929050565b60008060008060006080868803121561440b5761440a613ca9565b5b600061441988828901613cfc565b955050602061442a8882890161437f565b945050604061443b8882890161437f565b935050606086013567ffffffffffffffff81111561445c5761445b613cae565b5b61446888828901614399565b92509250509295509295909350565b600081519050919050565b600082825260208201905092915050565b6000819050602082019050919050565b6144ac81613d11565b82525050565b6144bb81613cd3565b82525050565b600081519050919050565b600082825260208201905092915050565b6000819050602082019050919050565b6144f681613e36565b82525050565b600081519050919050565b600082825260208201905092915050565b6000819050602082019050919050565b60408201600082015161453e60008501826144a3565b50602082015161455160208501826144a3565b50505050565b60006145638383614528565b60408301905092915050565b6000602082019050919050565b6000614587826144fc565b6145918185614507565b935061459c83614518565b8060005b838110156145cd5781516145b48882614557565b97506145bf8361456f565b9250506001810190506145a0565b5085935050505092915050565b600060e0830160008301516145f260008601826144a3565b50602083015161460560208601826144a3565b50604083015161461860408601826144a3565b50606083015161462b60608601826144a3565b50608083015161463e60808601826144a3565b5060a083015161465160a08601826144ed565b5060c083015184820360c0860152614669828261457c565b9150508091505092915050565b600061468283836145da565b905092915050565b6000602082019050919050565b60006146a2826144c1565b6146ac81856144cc565b9350836020820285016146be856144dd565b8060005b858110156146fa57848403895281516146db8582614676565b94506146e68361468a565b925060208a019950506001810190506146c2565b50829750879550505050505092915050565b600060a08301600083015161472460008601826144a3565b50602083015161473760208601826144a3565b50604083015161474a60408601826144a3565b50606083015161475d60608601826144b2565b50608083015184820360808601526147758282614697565b9150508091505092915050565b600061478e838361470c565b905092915050565b6000602082019050919050565b60006147ae82614477565b6147b88185614482565b9350836020820285016147ca85614493565b8060005b8581101561480657848403895281516147e78582614782565b94506147f283614796565b925060208a019950506001810190506147ce565b50829750879550505050505092915050565b6000602082019050818103600083015261483281846147a3565b905092915050565b600061484582613cd3565b9050919050565b6148558161483a565b811461486057600080fd5b50565b6000813590506148728161484c565b92915050565b600080600080600080600060c0888a03121561489757614896613ca9565b5b60006148a58a828b01613cfc565b97505060206148b68a828b0161437f565b96505060406148c78a828b0161437f565b95505060606148d88a828b01614863565b94505060806148e98a828b01613d32565b93505060a088013567ffffffffffffffff81111561490a57614909613cae565b5b6149168a828b01614399565b925092505092959891949750929550565b600067ffffffffffffffff8211156149425761494161408d565b5b602082029050602081019050919050565b600061496661496184614927565b6140ed565b9050808382526020820190506020840283018581111561498957614988614134565b5b835b818110156149b2578061499e8882613cfc565b84526020840193505060208101905061498b565b5050509392505050565b600082601f8301126149d1576149d0614088565b5b81356149e1848260208601614953565b91505092915050565b60008060408385031215614a0157614a00613ca9565b5b600083013567ffffffffffffffff811115614a1f57614a1e613cae565b5b614a2b858286016149bc565b925050602083013567ffffffffffffffff811115614a4c57614a4b613cae565b5b614a58858286016141a2565b9150509250929050565b600081519050919050565b600082825260208201905092915050565b6000819050602082019050919050565b6000614a9a83836144a3565b60208301905092915050565b6000602082019050919050565b6000614abe82614a62565b614ac88185614a6d565b9350614ad383614a7e565b8060005b83811015614b04578151614aeb8882614a8e565b9750614af683614aa6565b925050600181019050614ad7565b5085935050505092915050565b60006020820190508181036000830152614b2b8184614ab3565b905092915050565b600080600060608486031215614b4c57614b4b613ca9565b5b6000614b5a86828701613cfc565b935050602084013567ffffffffffffffff811115614b7b57614b7a613cae565b5b614b87868287016141a2565b925050604084013567ffffffffffffffff811115614ba857614ba7613cae565b5b614bb4868287016141a2565b9150509250925092565b60008060408385031215614bd557614bd4613ca9565b5b6000614be385828601613d32565b9250506020614bf48582860161437f565b9150509250929050565b60008060408385031215614c1557614c14613ca9565b5b6000614c2385828601613d32565b9250506020614c3485828601613d32565b9150509250929050565b6000602082019050614c536000830184613eec565b92915050565b614c6281614354565b82525050565b6000602082019050614c7d6000830184614c59565b92915050565b614c8c81613e36565b8114614c9757600080fd5b50565b600081359050614ca981614c83565b92915050565b60008060408385031215614cc657614cc5613ca9565b5b6000614cd485828601613cfc565b9250506020614ce585828601614c9a565b9150509250929050565b600060208284031215614d0557614d04613ca9565b5b6000614d1384828501613cfc565b91505092915050565b6000614d2782613cd3565b9050919050565b614d3781614d1c565b8114614d4257600080fd5b50565b600081359050614d5481614d2e565b92915050565b600060208284031215614d7057614d6f613ca9565b5b6000614d7e84828501614d45565b91505092915050565b60008060408385031215614d9e57614d9d613ca9565b5b6000614dac85828601613cfc565b9250506020614dbd85828601613cfc565b9150509250929050565b600060a083016000830151614ddf60008601826144a3565b506020830151614df260208601826144a3565b506040830151614e0560408601826144a3565b506060830151614e1860608601826144b2565b5060808301518482036080860152614e308282614697565b9150508091505092915050565b60006020820190508181036000830152614e578184614dc7565b905092915050565b600080600080600060a08688031215614e7b57614e7a613ca9565b5b6000614e8988828901613cfc565b9550506020614e9a88828901613cfc565b9450506040614eab88828901613d32565b9350506060614ebc88828901613d32565b925050608086013567ffffffffffffffff811115614edd57614edc613cae565b5b614ee988828901614257565b9150509295509295909350565b600080600060608486031215614f0f57614f0e613ca9565b5b6000614f1d86828701613cfc565b9350506020614f2e86828701613d32565b9250506040614f3f86828701613d32565b9150509250925092565b7f496e76616c69642063686f696365000000000000000000000000000000000000600082015250565b6000614f7f600e83613f67565b9150614f8a82614f49565b602082019050919050565b60006020820190508181036000830152614fae81614f72565b9050919050565b7f4e487b7100000000000000000000000000000000000000000000000000000000600052601160045260246000fd5b6000614fef82613d11565b9150614ffa83613d11565b925082820261500881613d11565b9150828204841483151761501f5761501e614fb5565b5b5092915050565b7f4e487b7100000000000000000000000000000000000000000000000000000000600052601260045260246000fd5b600061506082613d11565b915061506b83613d11565b92508261507b5761507a615026565b5b828204905092915050565b7f4e487b7100000000000000000000000000000000000000000000000000000000600052602260045260246000fd5b600060028204905060018216806150cd57607f821691505b6020821081036150e0576150df615086565b5b50919050565b7f4e487b7100000000000000000000000000000000000000000000000000000000600052603260045260246000fd5b7f5472616e7366657273206c6f636b656420647572696e6720616374697665206560008201527f76656e7400000000000000000000000000000000000000000000000000000000602082015250565b6000615171602483613f67565b915061517c82615115565b604082019050919050565b600060208201905081810360008301526151a081615164565b9050919050565b7f496e76616c696420736368656d6120666f72206576656e740000000000000000600082015250565b60006151dd601883613f67565b91506151e8826151a7565b602082019050919050565b6000602082019050818103600083015261520c816151d0565b9050919050565b7f4e6f742061207061727469636970616e74000000000000000000000000000000600082015250565b6000615249601183613f67565b915061525482615213565b602082019050919050565b600060208201905081810360008301526152788161523c565b9050919050565b7f416c726561647920617474657374656400000000000000000000000000000000600082015250565b60006152b5601083613f67565b91506152c08261527f565b602082019050919050565b600060208201905081810360008301526152e4816152a8565b9050919050565b7f5175657374696f6e20616c7265616479207265736f6c76656400000000000000600082015250565b6000615321601983613f67565b915061532c826152eb565b602082019050919050565b6000602082019050818103600083015261535081615314565b9050919050565b600061536282613d11565b91507fffffffffffffffffffffffffffffffffffffffffffffffffffffffffffffffff820361539457615393614fb5565b5b600182019050919050565b60006080820190506153b46000830187613eec565b6153c16020830186613d87565b6153ce6040830185613d87565b6153db6060830184613d87565b95945050505050565b7f4576656e74206e6f742061637469766500000000000000000000000000000000600082015250565b600061541a601083613f67565b9150615425826153e4565b602082019050919050565b600060208201905081810360008301526154498161540d565b9050919050565b7f416c7265616479206a6f696e6564000000000000000000000000000000000000600082015250565b6000615486600e83613f67565b915061549182615450565b602082019050919050565b600060208201905081810360008301526154b581615479565b9050919050565b7f496e73756666696369656e742062616c616e636520666f72207374616b650000600082015250565b60006154f2601e83613f67565b91506154fd826154bc565b602082019050919050565b60006020820190508181036000830152615521816154e5565b9050919050565b7f455243323020666565206e6f7420737570706f72746564000000000000000000600082015250565b600061555e601783613f67565b915061556982615528565b602082019050919050565b6000602082019050818103600083015261558d81615551565b9050919050565b60006040820190506155a96000830185613d87565b6155b66020830184613d87565b9392505050565b7f4f6e6c79206f7267616e697a65722063616e20636f6e636c7564650000000000600082015250565b60006155f3601b83613f67565b91506155fe826155bd565b602082019050919050565b60006020820190508181036000830152615622816155e6565b9050919050565b7f4576656e74206e6f7420656e6465640000000000000000000000000000000000600082015250565b600061565f600f83613f67565b915061566a82615629565b602082019050919050565b6000602082019050818103600083015261568e81615652565b9050919050565b7f4576656e7420616c726561647920636f6e636c75646564000000000000000000600082015250565b60006156cb601783613f67565b91506156d682615695565b602082019050919050565b600060208201905081810360008301526156fa816156be565b9050919050565b600061570c82613d11565b915061571783613d11565b925082820190508082111561572f5761572e614fb5565b5b92915050565b600060408201905061574a6000830185613eec565b6157576020830184613eec565b9392505050565b7f4e6f204f445a20746f20636c61696d0000000000000000000000000000000000600082015250565b6000615794600f83613f67565b915061579f8261575e565b602082019050919050565b600060208201905081810360008301526157c381615787565b9050919050565b60006040820190506157df6000830185613eec565b6157ec6020830184613d87565b9392505050565b7f496e76616c69642074696d652072616e67650000000000000000000000000000600082015250565b6000615829601283613f67565b9150615834826157f3565b602082019050919050565b600060208201905081810360008301526158588161581c565b9050919050565b7f4174206c6561737420322063686f696365732072657175697265640000000000600082015250565b6000615895601b83613f67565b91506158a08261585f565b602082019050919050565b600060208201905081810360008301526158c481615888565b9050919050565b7f496e73756666696369656e742062616c616e6365000000000000000000000000600082015250565b6000615901601483613f67565b915061590c826158cb565b602082019050919050565b60006020820190508181036000830152615930816158f4565b9050919050565b7f43616e206f6e6c7920617070726f7665207468697320636f6e74726163740000600082015250565b600061596d601e83613f67565b915061597882615937565b602082019050919050565b6000602082019050818103600083015261599c81615960565b9050919050565b7f496e76616c696420616464726573730000000000000000000000000000000000600082015250565b60006159d9600f83613f67565b91506159e4826159a3565b602082019050919050565b60006020820190508181036000830152615a08816159cc565b9050919050565b7f416c726561647920736574000000000000000000000000000000000000000000600082015250565b6000615a45600b83613f67565b9150615a5082615a0f565b602082019050919050565b60006020820190508181036000830152615a7481615a38565b9050919050565b7f5265766f636174696f6e206e6f7420737570706f727465640000000000000000600082015250565b6000615ab1601883613f67565b9150615abc82615a7b565b602082019050919050565b60006020820190508181036000830152615ae081615aa4565b9050919050565b7f416c726561647920616e73776572656400000000000000000000000000000000600082015250565b6000615b1d601083613f67565b9150615b2882615ae7565b602082019050919050565b60006020820190508181036000830152615b4c81615b10565b9050919050565b60006040820190508181036000830152615b6d8185614ab3565b90508181036020830152615b818184614ab3565b90509392505050565b600081519050919050565b600082825260208201905092915050565b6000615bb182615b8a565b615bbb8185615b95565b9350615bcb818560208601613f78565b615bd481613fa2565b840191505092915050565b600060a082019050615bf46000830188613eec565b615c016020830187613eec565b615c0e6040830186613d87565b615c1b6060830185613d87565b8181036080830152615c2d8184615ba6565b90509695505050505050565b600081519050615c4881613ddd565b92915050565b600060208284031215615c6457615c63613ca9565b5b6000615c7284828501615c39565b91505092915050565b600060a082019050615c906000830188613eec565b615c9d6020830187613eec565b8181036040830152615caf8186614ab3565b90508181036060830152615cc38185614ab3565b90508181036080830152615cd78184615ba6565b9050969550505050505056fea26469706673582212204e8b97cc69d3799c2bf21e1874576c95e8ad9fed11f05ba25c0a17c585be981064736f6c6343000818003368747470733a2f2f6170692e6578616d706c652e636f6d2f746f6b656e2f7b69647d2e6a736f6e",
  "linkReferences": {},
  "deployedLinkReferences": {}
}